:020000040800F2
:100000000028002039190008C9180008CF18000876
:10001000D5180008DB180008E118000800000000EF
:10002000000000000000000000000000E7180008C9
:10003000F318000800000000FF1800080B19000862
:100040008119000881190008811900088119000828
:100050008119000881190008811900088119000818
:100060008119000881190008811900088119000808
:1000700081190008811900088119000881190008F8
:1000800081190008811900088119000881190008E8
:1000900081190008811900088119000881190008D8
:1000A00081190008811900088119000881190008C8
:1000B00019190008811900080000000081190008C2
:1000C00081190008000000000000000081190008EC
:1000D00000000000811900088119000800000000DC
:1000E000811900088119000881190008000000002A
:1000F0000000000000000000000000000000000000
:0C01000000000000000000005FF808F1A3
:10010C0010B5054C237833B9044B13B10448AFF345
:10011C0000800123237010BD5C0000200000000053
:10012C00D02F000808B5034B1BB103490348AFF3AC
:10013C00008008BD0000000060000020D02F0008E7
:10014C0080B483B000AF7860094A7B6852F82330E2
:10015C00012B06D1064A7B68002142F823100123AB
:10016C0000E0002318460C37BD4680BC704700BF2A
:10017C007800002080B483B000AF7860044A7B68BC
:10018C00012142F8231000BF0C37BD4680BC7047DC
:10019C007800002080B582B000AF00237B6069E05E
:1001AC00384A7B6852F8232037497B6841F8232072
:1001BC00364A7B6852F8232032497B6841F8232069
:1001CC00334A7B6832F813301946324801F0C0FECE
:1001DC00034619462D4A7B6842F82310294A7B684E
:1001EC0052F8232029497B6851F823309A423ED19A
:1001FC00244A7B6852F8232023497B6851F823302A
:10020C009A4234D1204A7B6852F8232022497B68D9
:10021C0051F823309A4216D01B4A7B6852F823209F
:10022C001D497B6841F823201B4A7B6852F8233018
:10023C00002B1CD1194A7B68C82142F8231078681E
:10024C00FFF798FF13E0154A7B6852F823305A1ECB
:10025C0012497B6841F82320104A7B6852F82330FE
:10026C00002B04D10C4A7B68012142F823107B68D7
:10027C0001337B607B68022B92DD00BF00BF083727
:10028C00BD4680BD14000020200000200800002086
:10029C0000000020000C01402C0000203800002041
:1002AC0080B582B000AF00237B6005E07868FFF773
:1002BC0047FF7B6801337B607B68022BF6DD00BF58
:1002CC0000BF0837BD4680BD80B500AF01224FF49A
:1002DC0080710B4801F053FE01224FF40071084865
:1002EC0001F04DFE01224FF48061054801F047FEFC
:1002FC0001224FF40061024801F041FE00BF80BDB5
:10030C000008014080B582B000AF78607B68002B9C
:10031C0023D100220121C24801F031FE002202212A
:10032C00BF4801F02CFE00220421BD4801F027FE3D
:10033C0000220821BA4801F022FE00221021B84800
:10034C0001F01DFE00222021B54801F018FE01220B
:10035C004021B34801F013FE5DE17B68012B23D1F2
:10036C0001220121AE4801F00AFE00220221AC4814
:10037C0001F005FE00220421A94801F000FE012233
:10038C000821A74801F0FBFD01221021A44801F02F
:10039C00F6FD01222021A24801F0F1FD01224021AD
:1003AC009F4801F0ECFD36E17B68022B23D1002243
:1003BC0001219B4801F0E3FD00220221984801F045
:1003CC00DEFD01220421964801F0D9FD002208210E
:1003DC00934801F0D4FD00221021914801F0CFFD8B
:1003EC00012220218E4801F0CAFD002240218C48B8
:1003FC0001F0C5FD0FE17B68032B23D10022012105
:10040C00874801F0BCFD00220221854801F0B7FDB0
:10041C0000220421824801F0B2FD0022082180480C
:10042C0001F0ADFD012210217D4801F0A8FD012253
:10043C0020217B4801F0A3FD00224021784801F0E7
:10044C009EFDE8E07B68042B23D101220121744836
:10045C0001F095FD00220221714801F090FD00226F
:10046C0004216F4801F08BFD012208216C4801F03A
:10047C0086FD012210216A4801F081FD0022202115
:10048C00674801F07CFD00224021654801F077FDB2
:10049C00C1E07B68052B23D100220121604801F0CB
:1004AC006EFD012202215E4801F069FD002204214B
:1004BC005B4801F064FD00220821594801F05FFD02
:1004CC0001221021564801F05AFD002220215448E7
:1004DC0001F055FD00224021514801F050FD9AE0F9
:1004EC007B68062B23D1002201214D4801F047FDEA
:1004FC00012202214A4801F042FD00220421484811
:10050C0001F03DFD00220821454801F038FD002294
:10051C001021434801F033FD00222021404801F016
:10052C002EFD002240213E4801F029FD73E07B683E
:10053C00072B23D100220121394801F020FD002294
:10054C000221374801F01BFD00220421344801F040
:10055C0016FD01220821324801F011FD0122102163
:10056C002F4801F00CFD012220212D4801F007FD40
:10057C00012240212A4801F002FD4CE07B68082B47
:10058C0023D100220121264801F0F9FC002202218E
:10059C00234801F0F4FC00220421214801F0EFFC77
:1005AC00002208211E4801F0EAFC002210211C4800
:1005BC0001F0E5FC00222021194801F0E0FC0022AA
:1005CC004021174801F0DBFC25E07B68092B22D188
:1005DC0000220121124801F0D2FC00220221104815
:1005EC0001F0CDFC002204210D4801F0C8FC0022D2
:1005FC0008210B4801F0C3FC01221021084801F02E
:10060C00BEFC00222021064801F0B9FC002240214A
:10061C00034801F0B4FC00BF0837BD4680BD00BFE5
:10062C00000C014080B500AFFFF74EFE214B1B685C
:10063C00214A52F823301846FFF764FE1D4B1B6805
:10064C00032B27D801A252F823F000BF690600083B
:10065C0077060008850600089306000800224FF470
:10066C008071164801F08BFC15E000224FF40071EC
:10067C00124801F084FC0EE000224FF480610F4818
:10068C0001F07DFC07E000224FF400610B4801F003
:10069C0076FC00E000BF074B1B680133054A136072
:1006AC00044B1B68032B02DD024B00221A6000BFB7
:1006BC0080BD00BF98000020880000200008014089
:1006CC0080B500AFA34B1B68042B00F2408101A244
:1006DC0052F823F0F506000817070008A1070008D8
:1006EC003B080008C308000800F03EFB994B0122B0
:1006FC001A60994B1B68642202FB03F3184600F046
:10070C00A5FF642000F0B6FF3BE100F0A9FA00F071
:10071C0015FB924B1B68012B14D1642000F0AAFF2F
:10072C008F4B1B68013B8E4A13608E4B1B68013B41
:10073C008C4A13608B4B1B68002B03DC8A4B1B68A9
:10074C00884A1360894B1B68012B0AD1864B1B68A6
:10075C00642202FB03F3184600F078FF7D4B022263
:10076C001A600020FFF7ECFC0346012B40F00281DD
:10077C0000F0FAFA774B0C221A60012000F0B6FF59
:10078C007B4B1B68764A1360764B02221A60FFF78C
:10079C0087FDEFE000F064FA00F0BAFA6F4B1B68CB
:1007AC00012B1CD1642000F065FF6D4B1B68013BD5
:1007BC006B4A13606A4B1B68002B03DC664B1B688F
:1007CC00674A1360674B1B68013B664A1360654BB5
:1007DC001B68002B03DC664B1B68624A1360634B7F
:1007EC001B68012B0AD15C4B1B68642202FB03F3D0
:1007FC00184600F02BFF574B03221A600020FFF71E
:10080C009FFC0346012B40F0B78000F0ADFA514B32
:10081C000C221A60012000F069FF554B1B68504AEE
:10082C001360504B02221A60FFF73AFDA4E000F06F
:10083C0043FA00F057FA494B1B68012B14D1642082
:10084C0000F018FF464B1B68013B454A1360444BB4
:10085C001B68002B03DC444B1B68414A1360414B63
:10086C001B68013B3F4A1360404B1B68012B0AD1AC
:10087C003D4B1B68642202FB03F3184600F0E6FEB6
:10088C00344B04221A600020FFF75AFC0346012B5C
:10089C0074D100F069FA2F4B0C221A60012000F081
:1008AC0025FF334B1B682E4A13602E4B02221A6015
:1008BC00FFF7F6FC62E000F0E9F900F013FA274BC1
:1008CC001B68012B1CD1642000F0D4FE244B1B6848
:1008DC00013B234A1360224B1B68002B03DC244B87
:1008EC001B681F4A13601F4B1B68013B1D4A13609A
:1008FC001C4B1B68002B03DC174B1B68194A13603D
:10090C001A4B1B68012B0AD1134B1B68642202FB88
:10091C0003F3184600F09AFE0E4B01221A600020D9
:10092C00FFF70EFC0346012B2AD100F01DFA094BF0
:10093C000C221A60012000F0D9FE0D4B1B68084AEE
:10094C001360084B02221A60FFF7AAFC18E000BFE4
:10095C0017E000BF840000204C000020C8010020DC
:10096C009C000020A000002048000020C0010020B6
:10097C004400002000BF04E000BF02E000BF00E024
:10098C0000BF00BF80BD00BF80B500AF774B1B68B8
:10099C000E2B46D00E2B00F3DF800C2B02D00D2B30
:1009AC007CD0D9E0724B1B68012B04D100F04AF9C2
:1009BC00192000F09BFE0120FFF7C2FB0346012B20
:1009CC000ED16C4B1B6801336A4A1360694B1B6870
:1009DC005A1C68490A60632B02DD664B02221A60BE
:1009EC000020FFF7ADFB0346012B0ED1012000F0D8
:1009FC007DFE5E4B0E221A605F4B1B685D4A1360D6
:100A0C005E4B03221A60FFF74BFC0220FFF798FBAA
:100A1C000346012B40F0A280564B1B68584A1360CA
:100A2C009CE0534B1B68012B04D100F0EFF819200C
:100A3C0000F05CFE0120FFF783FB0346012B0DD178
:100A4C004C4B1B6801334B4A13604A4B1A684C4B96
:100A5C001B689A4202DB474B01221A600020FFF709
:100A6C006FFB0346012B0ED1012000F03FFE3F4BE4
:100A7C000D221A60434B1B683E4A13603F4B042205
:100A8C001A60FFF70DFC0220FFF75AFB0346012BFF
:100A9C0066D1384B1B68384A136061E0344B1B68D5
:100AAC00012B04D100F0C0F8192000F01FFE01202A
:100ABC00FFF746FB0346012B0DD12E4B1B68013370
:100ACC002C4A13602B4B1A682D4B1B689A4202DB85
:100ADC00284B01221A600020FFF732FB0346012B42
:100AEC0028D1224B01221A60254B1A68224B1B6815
:100AFC00D31A244A1360224B1B681E4A1360214BE5
:100B0C001B681E4A136000F041F81E4B1B686422E0
:100B1C0002FB03F3184600F099FD642000F0AAFDD7
:100B2C00012000F0CFFD184B00221A60FFF7CCFB20
:100B3C00FFF7B6FB0220FFF703FB0346012B11D195
:100B4C000C4B1B680F4A13600D4B1A680D4B1B683E
:100B5C00D31A094A136005E000BF04E000BF02E0AD
:100B6C0000BF00E000BF00BF80BD00BF84000020BC
:100B7C00E00100209C00002048000020A000002084
:100B8C00440000204C0000209800002080B400AFEE
:100B9C001A4B1B681A4A82FB03129210DB17D31AEA
:100BAC00184A1360154B1968154B83FB01239A10D7
:100BBC00CB17D21A13469B0013445B00CA1A114B75
:100BCC005A60114B1B680E4A82FB03129210DB1702
:100BDC00D31A0C4A93600C4B1968094B83FB012305
:100BEC009A10CB17D21A13469B0013445B00CA1AF7
:100BFC00044BDA6000BFBD4680BC70479C000020EF
:100C0C006766666688000020A000002080B500AFF3
:100C1C001021044801F0CBF98021024801F0C7F9FA
:100C2C0000BF80BD0008014080B500AF082104481A
:100C3C0001F0BDF94021024801F0B9F900BF80BDB7
:100C4C000008014080B500AF0421044801F0AFF961
:100C5C002021024801F0ABF900BF80BD0008014023
:100C6C0080B500AF00220421074801F088F9012269
:100C7C000821054801F083F901221021024801F0F6
:100C8C007EF900BF80BD00BF0008014080B500AFF9
:100C9C0001220421074801F072F9012208210548BC
:100CAC0001F06DF900221021024801F068F900BF33
:100CBC0080BD00BF0008014080B500AF01220421B7
:100CCC00074801F05CF900220821054801F057F9AA
:100CDC0001221021024801F052F900BF80BD00BF73
:100CEC000008014080B500AF00222021074801F028
:100CFC0046F901224021054801F041F901228021E9
:100D0C00024801F03CF900BF80BD00BF0008014063
:100D1C0080B500AF01222021074801F030F90122F3
:100D2C004021054801F02BF900228021024801F0F6
:100D3C0026F900BF80BD00BF0008014080B500AFA0
:100D4C0001222021074801F01AF900224021054810
:100D5C0001F015F901228021024801F010F900BFC1
:100D6C0080BD00BF0008014080B500AF0122042106
:100D7C000E4801F004F9012208210C4801F0FFF89B
:100D8C0001221021094801F0FAF80122202107481C
:100D9C0001F0F5F801224021044801F0F0F801229D
:100DAC008021024801F0EBF800BF80BD0008014033
:100DBC0080B500AF00F0E0FD00F052F800F0D8F87C
:100DCC0000F08AF81B4801F039FD012000F066FCA8
:100DDC00012000F077FC192000F088FC164B1B68F2
:100DEC00164A1360164B1B68164A136000F036F94E
:100DFC0001220021144800F09FF901220021134820
:100E0C0000F09AF901220021114800F095F9012215
:100E1C000021104800F090F90A2201210E4800F040
:100E2C008BF9192201210D4800F086F900F0CEFB58
:100E3C00FCE700BFA4000020440000209C00002020
:100E4C004C000020A000002021170008A101000880
:100E5C0095090008CD060008990B0008310600081A
:100E6C0080B590B000AF07F1180328220021184676
:100E7C0002F07CF83B1D00221A605A609A60DA601E
:100E8C001A610223BB610123BB621023FB620023A6
:100E9C007B6307F11803184601F0A2F80346002BF8
:100EAC0001D000F0D5F80F237B600023BB6000233A
:100EBC00FB6000233B6100237B613B1D0021184636
:100ECC0001F010FB0346002B01D000F0C1F800BF6D
:100EDC004037BD4680BD000080B586B000AF07F13D
:100EEC00080300221A605A609A60DA603B460022BE
:100EFC001A605A601D4B4FF080421A601B4B41F632
:100F0C003F725A60194B00229A60184B0922DA6022
:100F1C00164B00221A61154B00229A61134801F0FE
:100F2C003DFC0346002B01D000F092F84FF48053A7
:100F3C00BB6007F1080319460C4801F0D3FD0346CA
:100F4C00002B01D000F084F800233B6000237B6071
:100F5C003B461946054801F09FFF0346002B01D084
:100F6C0000F076F800BF1837BD4680BDA400002005
:100F7C0080B586B000AF07F1080300221A605A60F2
:100F8C009A60DA602A4B9B69294A43F00403936107
:100F9C00274B9B6903F004037B607B68244B9B69A4
:100FAC00234A43F008039361214B9B6903F0080328
:100FBC003B603B68012240F6DC711E4800F0DFFF0D
:100FCC00002220211B4800F0DAFF00227F211A4862
:100FDC0000F0D5FF40F6FC73BB600123FB600023DF
:100FEC003B6102237B6107F108031946114800F0AD
:100FFC0033FE7F23BB600123FB6000233B61022394
:10100C007B6107F1080319460B4800F025FE4FF4ED
:10101C00E043BB600023FB6001233B6107F1080345
:10102C001946054800F018FE00BF1837BD4680BDB4
:10103C000010024000080140000C014080B582B055
:10104C0000AF786000F050F800BF0837BD4680BD97
:10105C0080B400AF72B600BFFEE7000080B483B06E
:10106C0000AF00237B6034E01E497A6813469B0076
:10107C0013449B000B4400221A601A497A681346E9
:10108C009B0013449B000B44043300221A60154947
:10109C007A6813469B0013449B000B4408330022D0
:1010AC001A6010497A6813469B0013449B000B444A
:1010BC000C3300221A700B497A6813469B001344B8
:1010CC009B000B4410334FF0FF321A607B680133E6
:1010DC007B607B68092BC7DD00BF00BF0C37BD46AA
:1010EC0080BC7047EC00002080B400AF104B1B6834
:1010FC0001330F4A13600F4B1B68002B13D00D4BA1
:10110C001B7B002B0FD10B4B5B68002B04D0094BC6
:10111C005B68013B074A5360064B5B68002B02D1AE
:10112C00044B01221A7300BFBD4680BC704700BF40
:10113C00B8010020EC00002090B589B000AFF86039
:10114C00B9607A600023FB770023BB6100233B610D
:10115C000023FB7733E1FA7FA14913469B0013442C
:10116C009B000B4404331B68BA691344BB61BA6916
:10117C00BB689A4240F2C180FA7F994913469B00A2
:10118C0013449B000B4404331A68BB69D31ABA6826
:10119C0013443B61FA7FB969BB68C91A904813467E
:1011AC009B0013449B000344043319600923FB7513
:1011BC004CE0FB7D591EFA7D89480B469B000B4485
:1011CC009B0003441968864813469B0013449B00FC
:1011DC0003441960FB7D591EFA7D81480B469B0028
:1011EC000B449B000344083319687D4813469B004D
:1011FC0013449B00034408331960FB7D591EFA7D90
:10120C0077480B469B000B449B000344043319683E
:10121C00734813469B0013449B000344043319602A
:10122C00FB7D591EFA7D6E480B469B000B449B00C0
:10123C000344103319686A4813469B0013449B00FF
:10124C00034410331960FB7D013BFB75FA7DFB7F7A
:10125C009A42AED8FA7F624913469B0013449B0016
:10126C000B44FA681A60FA7F5D4913469B001344DD
:10127C009B000B4404333A691A60FA7F58491346B1
:10128C009B0013449B000B4408337A681A60FA7F66
:10129C00534913469B0013449B000B4404331B68B7
:1012AC00002B0AD1FA7F4E4913469B0013449B0036
:1012BC000B440C3301221A7009E0FA7F484913469B
:1012CC009B0013449B000B440C3300221A70FC7FD0
:1012DC0000F0A4F90246424923469B0023449B009C
:1012EC000B4410331A60FA7F3D4913469B0013449C
:1012FC009B000B4410331B686EE0FA7F3849134691
:10130C009B0013449B000B441B68002B54D1FA7FA9
:10131C00334913469B0013449B000B44FA681A6034
:10132C00FA7FB968BB69C91A2D4813469B00134450
:10133C009B00034404331960FA7F294913469B0030
:10134C0013449B000B4408337A681A60FA7F2449D3
:10135C0013469B0013449B000B4404331B68002B67
:10136C000AD1FA7F1E4913469B0013449B000B4481
:10137C000C3301221A7009E0FA7F194913469B00BD
:10138C0013449B000B440C3300221A70FC7F00F0BA
:10139C0045F90246124923469B0023449B000B440B
:1013AC0010331A60FA7F0E4913469B0013449B00BE
:1013BC000B4410331B680FE0FB7F0133FB77FB7F83
:1013CC00092B7FF6C8AEFA7F054913469B001344E0
:1013DC009B000B4410331B6818462437BD4690BD48
:1013EC00EC00002080B485B000AF786000237B73E4
:1013FC007B68002B00F0E2800023FB73DAE0FA7BC1
:10140C00714913469B0013449B000B4410331B681B
:10141C007A689A4240F0CB8001237B73FB7B002BD4
:10142C002BD0FB7B082B28D8FB7B5A1C6649134618
:10143C009B0013449B000B441B68002B1DD0FB7BB3
:10144C005A1C614913469B0013449B000B44043304
:10145C001968FA7B5C4813469B0013449B000344B9
:10146C0004331B68FA7B01321944574813469B001E
:10147C0013449B00034404331960FB7BBB7360E093
:10148C00BB7B591CBA7B50480B469B000B449B0002
:10149C00034419684C4813469B0013449B000344B7
:1014AC001960BB7B591CBA7B47480B469B000B440D
:1014BC009B00034408331968434813469B001344AC
:1014CC009B00034408331960BB7B591CBA7B3E4814
:1014DC000B469B000B449B000344043319683A48A9
:1014EC0013469B0013449B00034404331960BB7BDD
:1014FC00591CBA7B34480B469B000B449B0003449D
:10150C000C331878304913469B0013449B000B4452
:10151C000C3302461A70BB7B591CBA7B2A480B460B
:10152C009B000B449B000344103319682648134658
:10153C009B0013449B00034410331960BB7B0133A5
:10154C00BB73BB7B082B9BD9BA7B1F4913469B00F3
:10155C0013449B000B4400221A60BA7B1A491346B1
:10156C009B0013449B000B44083300221A60BA7B87
:10157C00154913469B0013449B000B440433002273
:10158C001A60BA7B104913469B0013449B000B4412
:10159C000C3300221A70BA7B0B4913469B00134480
:1015AC009B000B44103300221A607B7B07E0FB7B13
:1015BC000133FB73FB7B092B7FF621AF7B7B18463A
:1015CC001437BD4680BC7047EC000020B0B586B027
:1015DC0000AF114B1B7B002B19D00F4B1B6898478E
:1015EC000D4B00221A730C4B3C1D1D460FCD0FC426
:1015FC002B6823607B691846FFF7F4FEFB68002B11
:10160C0005D07B68F968FA681846FFF795FD00BFAE
:10161C001837BD46B0BD00BFEC00002080B400AF51
:10162C00094B1B680133084A1360074B1B68002BDE
:10163C0004D1054B1B680133034A1360024B1B6832
:10164C001846BD4680BC7047B401002080B483B0FE
:10165C0000AF7860054A7B681360054B00221A6066
:10166C0000BF0C37BD4680BC704700BFBC010020DA
:10167C00C001002080B483B000AF7860054A7B685D
:10168C001360054B00221A6000BF0C37BD4680BCAE
:10169C00704700BFC4010020C801002080B483B093
:1016AC0000AF7860054A7B681360054B00221A6016
:1016BC0000BF0C37BD4680BC704700BFCC0100207A
:1016CC00D001002080B483B000AF7860054A7B68FD
:1016DC001360054B00221A6000BF0C37BD4680BC5E
:1016EC00704700BFD4010020D801002080B483B023
:1016FC0000AF7860054A7B681360054B00221A60C6
:10170C0000BF0C37BD4680BC704700BFDC01002019
:10171C00E001002080B400AF314B1B68002B0BDDC7
:10172C002F4B1B68013B2E4A13602D4B1B68002B63
:10173C0002DC2C4B01221A602B4B1B68002B0BDD9F
:10174C00294B1B68013B284A1360274B1B68002B55
:10175C0002DC264B01221A60254B1B68002B0BDD8B
:10176C00234B1B68013B224A1360214B1B68002B47
:10177C0002DC204B01221A601F4B1B68002B0BDD77
:10178C001D4B1B68013B1C4A13601B4B1B68002B39
:10179C0002DC1A4B01221A60194B1B68002B0BDD63
:1017AC00174B1B68013B164A1360154B1B68002B2B
:1017BC0002DC144B01221A60134B1B68002B0BDD4F
:1017CC00114B1B68013B104A13600F4B1B68002B1D
:1017DC0002DC0E4B01221A6000BFBD4680BC704774
:1017EC00BC010020C0010020C4010020C801002061
:1017FC00CC010020D0010020D4010020D801002011
:10180C00DC010020E0010020E4010020E8010020C0
:10181C0080B485B000AF154B9B69144A43F00103AB
:10182C009361124B9B6903F00103BB60BB680F4BC8
:10183C00DB690E4A43F08053D3610C4BDB6903F038
:10184C0080537B607B680A4B5B68FB60FB6823F012
:10185C00E063FB60FB6843F08063FB60044AFB6859
:10186C00536000BF1437BD4680BC70470010024067
:10187C000000014080B584B000AF78607B681B68C5
:10188C00B3F1804F13D10C4BDB690B4A43F00103CE
:10189C00D361094BDB6903F00103FB60FB68002299
:1018AC0000211C2000F0A1F91C2000F0BAF900BFA7
:1018BC001037BD4680BD00BF0010024080B400AFA1
:1018CC00FEE780B400AFFEE780B400AFFEE780B463
:1018DC0000AFFEE780B400AFFEE780B400AF00BFFE
:1018EC00BD4680BC704780B400AF00BFBD4680BC15
:1018FC00704780B400AF00BFBD4680BC704780B558
:10190C0000AF00F07FF800BF80BD000080B500AFD5
:10191C00024800F0DFFF00BF80BD00BFA400002024
:10192C0080B400AF00BFBD4680BC7047FFF7F8FF26
:10193C000B480C490C4A002302E0D458C450043321
:10194C00C4188C42F9D3094A094C002301E01360F6
:10195C000432A242FBD301F011FBFFF729FA7047C6
:10196C00000000205C000020143000085C00002007
:10197C00F0010020FEE7000080B500AF084B1B68AB
:10198C00074A43F010031360032000F023F90F20E3
:10199C0000F008F8FFF73CFF0023184680BD00BF9D
:1019AC000020024080B582B000AF7860124B1A68FC
:1019BC00124B1B7819464FF47A73B3FBF1F3B2FB5D
:1019CC00F3F3184600F03BF90346002B01D001233A
:1019DC000EE07B680F2B0AD8002279684FF0FF309D
:1019EC0000F003F9064A7B681360002300E0012332
:1019FC0018460837BD4680BD500000205800002016
:101A0C005400002080B400AF054B1B781A46054BE0
:101A1C001B681344034A136000BFBD4680BC70476B
:101A2C0058000020EC01002080B400AF024B1B6872
:101A3C001846BD4680BC7047EC01002080B485B0D0
:101A4C0000AF78607B6803F00703FB600C4BDB682E
:101A5C00BB60BA684FF6FF031340BB60FB681A0209
:101A6C00BB68134343F0BF6343F40033BB60044AC9
:101A7C00BB68D36000BF1437BD4680BC704700BF45
:101A8C0000ED00E080B400AF044BDB681B0A03F0F0
:101A9C0007031846BD4680BC704700BF00ED00E050
:101AAC0080B483B000AF0346FB7197F90730002B6D
:101ABC000BDBFB7903F01F02064997F907305B0932
:101ACC00012000FA02F241F8232000BF0C37BD467A
:101ADC0080BC704700E100E080B483B000AF0346E7
:101AEC003960FB7197F90730002B0ADB3B68DAB2DF
:101AFC000C4997F907301201D2B20B4483F800233A
:101B0C000AE03B68DAB20849FB7903F00F03043BA7
:101B1C001201D2B20B441A7600BF0C37BD4680BC02
:101B2C00704700BF00E100E000ED00E080B489B038
:101B3C0000AFF860B9607A60FB6803F00703FB61E3
:101B4C00FB69C3F10703042B28BF0423BB61FB69AA
:101B5C000433062B02D9FB69033B00E000237B61B5
:101B6C004FF0FF32BB6902FA03F3DA43BB681A4049
:101B7C007B699A404FF0FF317B6901FA03F3D9433B
:101B8C007B680B40134318462437BD4680BC704716
:101B9C0080B582B000AF78607B68013BB3F1807F89
:101BAC0001D301230FE00A4A7B68013B53600F21EC
:101BBC004FF0FF30FFF790FF054B00229A60044B6B
:101BCC0007221A60002318460837BD4680BD00BFA7
:101BDC0010E000E080B582B000AF78607868FFF765
:101BEC002DFF00BF0837BD4680BD80B586B000AF65
:101BFC000346B9607A60FB7300237B61FFF742FFF9
:101C0C0078617A68B9687869FFF790FF024697F9AE
:101C1C000F3011461846FFF75FFF00BF1837BD465F
:101C2C0080BD80B582B000AF0346FB7197F90730D9
:101C3C001846FFF735FF00BF0837BD4680BD80B59D
:101C4C0082B000AF78607868FFF7A2FF03461846B1
:101C5C000837BD4680BD000080B48BB000AF786003
:101C6C00396000237B6200233B6261E101227B6AC5
:101C7C0002FA03F3FB613B681B68FA691340BB6112
:101C8C00BA69FB699A4240F050813B685B68974A9D
:101C9C0093425ED0954A934275D8954A934258D058
:101CAC00934A93426FD8934A934252D0914A9342AB
:101CBC0069D8914A93424CD08F4A934263D88F4A49
:101CCC00934246D08D4A93425DD8122B2AD8122BC0
:101CDC0059D801A252F823F05F1D0008391D0008E5
:101CEC004B1D00088D1D0008931D0008931D000856
:101CFC00931D0008931D0008931D0008931D0008F8
:101D0C00931D0008931D0008931D0008931D0008E7
:101D1C00931D0008931D0008931D0008411D000829
:101D2C00551D0008764A934213D02CE03B68DB68C3
:101D3C003B6229E03B68DB6804333B6224E03B6890
:101D4C00DB6808333B621FE03B68DB680C333B62AB
:101D5C001AE03B689B68002B02D104233B6213E022
:101D6C003B689B68012B05D108233B627B68FA69B1
:101D7C001A6109E008233B627B68FA695A6103E047
:101D8C0000233B6200E000BFBB69FF2B01D87B68DE
:101D9C0001E07B6804337B61BB69FF2B02D87B6A53
:101DAC009B0002E07B6A083B9B003B617B691A68E5
:101DBC000F213B6901FA03F3DB431A40396A3B6993
:101DCC0001FA03F31A437B691A603B685B6803F002
:101DDC008053002B00F0A9804A4B9B69494A43F081
:101DEC0001039361474B9B6903F00103BB60BB6824
:101DFC00454A7B6A9B08023352F82330FB607B6AAE
:101E0C0003F003039B000F2202FA03F3DB43FA688F
:101E1C001340FB607B683D4A93420DD07B683C4A83
:101E2C00934207D07B683B4A934201D1022304E0E2
:101E3C00032302E0012300E000237A6A02F003028C
:101E4C0092009340FA681343FB602F497B6A9B080E
:101E5C000233FA6841F823203B685B6803F4801373
:101E6C00002B06D02C4B9A682B49BB6913438B6013
:101E7C0006E0294B9A68BB69DB43274913408B600A
:101E8C003B685B6803F40013002B06D0224BDA6826
:101E9C002149BB691343CB6006E01F4BDA68BB6971
:101EAC00DB431D491340CB603B685B6803F4003394
:101EBC00002B06D0184B5A681749BB6913434B606B
:101ECC0006E0154B5A68BB69DB43134913404B6062
:101EDC003B685B6803F48033002B1FD00E4B1A68F1
:101EEC000D49BB6913430B601FE000BF00003210AB
:101EFC000000311000002210000021100000121010
:101F0C0000001110001002400000014000080140C8
:101F1C00000C014000100140000401400B4B1A68FA
:101F2C00BB69DB43094913400B607B6A01337B625D
:101F3C003B681A687B6A22FA03F3002B7FF496AE97
:101F4C0000BF00BF2C37BD4680BC70470004014069
:101F5C0080B485B000AF78600B467B807B689A6854
:101F6C007B881340002B02D00123FB7301E000237C
:101F7C00FB73FB7B18461437BD4680BC704780B49E
:101F8C0083B000AF78600B467B8013467B707B7808
:101F9C00002B03D07A887B681A6103E07B881A04D3
:101FAC007B681A6100BF0C37BD4680BC704780B49B
:101FBC0085B000AF78600B467B807B68DB68FB608C
:101FCC007A88FB6813401A04FB68D9437B880B4062
:101FDC001A437B681A6100BF1437BD4680BC70473A
:101FEC0080B586B000AF78607B68002B01D10123EF
:101FFC0072E27B681B6803F00103002B00F0878002
:10200C00924B5B6803F00C03042B0CD08F4B5B687A
:10201C0003F00C03082B12D18C4B5B6803F4803358
:10202C00B3F5803F0BD1894B1B6803F40033002BB5
:10203C006CD07B685B68002B68D101234CE27B6819
:10204C005B68B3F5803F06D1804B1B687F4A43F435
:10205C00803313602EE07B685B68002B0CD17B4BCC
:10206C001B687A4A23F480331360784B1B68774AD9
:10207C0023F4802313601DE07B685B68B3F5A02F0D
:10208C000CD1724B1B68714A43F4802313606F4B65
:10209C001B686E4A43F4803313600BE06B4B1B6878
:1020AC006A4A23F480331360684B1B68674A23F435
:1020BC00802313607B685B68002B13D0FFF7B4FCA4
:1020CC00386108E0FFF7B0FC02463B69D31A642B79
:1020DC0001D9032300E25D4B1B6803F40033002B92
:1020EC00F0D014E0FFF7A0FC386108E0FFF79CFC8F
:1020FC0002463B69D31A642B01D90323ECE1534B01
:10210C001B6803F40033002BF0D100E000BF7B68A8
:10211C001B6803F00203002B63D04C4B5B6803F08D
:10212C000C03002B0BD0494B5B6803F00C03082B02
:10213C001CD1464B5B6803F48033002B16D1434B08
:10214C001B6803F00203002B05D07B681B69012B75
:10215C0001D00123C0E13D4B1B6823F0F8027B68E2
:10216C005B69DB00394913430B603AE07B681B6900
:10217C00002B20D0364B01221A60FFF755FC38613A
:10218C0008E0FFF751FC02463B69D31A022B01D938
:10219C000323A1E12D4B1B6803F00203002BF0D0AD
:1021AC002A4B1B6823F0F8027B685B69DB0027492C
:1021BC0013430B6015E0264B00221A60FFF734FC2A
:1021CC00386108E0FFF730FC02463B69D31A022B5A
:1021DC0001D9032380E11D4B1B6803F00203002B84
:1021EC00F0D17B681B6803F00803002B3AD07B68A6
:1021FC009B69002B19D0174B01221A60FFF714FCB6
:10220C00386108E0FFF710FC02463B69D31A022B39
:10221C0001D9032360E10D4B5B6A03F00203002B31
:10222C00F0D0012000F09CFA1CE00A4B00221A604E
:10223C00FFF7FAFB38610FE0FFF7F6FB02463B694C
:10224C00D31A022B08D9032346E100BF0010024029
:10225C000000424280044242924B5B6A03F002034C
:10226C00002BE9D17B681B6803F00403002B00F002
:10227C00A6800023FB758B4BDB6903F08053002B8E
:10228C000DD1884BDB69874A43F08053D361854B72
:10229C00DB6903F08053BB60BB680123FB75824B89
:1022AC001B6803F48073002B18D17F4B1B687E4A8C
:1022BC0043F480731360FFF7B7FB386108E0FFF756
:1022CC00B3FB02463B69D31A642B01D9032303E108
:1022DC00754B1B6803F48073002BF0D07B68DB68B4
:1022EC00012B06D16F4B1B6A6E4A43F0010313623C
:1022FC002DE07B68DB68002B0CD16A4B1B6A694AAA
:10230C0023F001031362674B1B6A664A23F0040334
:10231C0013621CE07B68DB68052B0CD1614B1B6ADC
:10232C00604A43F0040313625E4B1B6A5D4A43F040
:10233C00010313620BE05B4B1B6A5A4A23F0010347
:10234C001362584B1B6A574A23F0040313627B68D1
:10235C00DB68002B15D0FFF767FB38610AE0FFF74D
:10236C0063FB02463B69D31A41F28832934201D98E
:10237C000323B1E04B4B1B6A03F00203002BEED09E
:10238C0014E0FFF751FB38610AE0FFF74DFB024602
:10239C003B69D31A41F28832934201D903239BE063
:1023AC00404B1B6A03F00203002BEED1FB7D012B8B
:1023BC0005D13C4BDB693B4A23F08053D3617B68EE
:1023CC00DB69002B00F08780364B5B6803F00C0355
:1023DC00082B61D07B68DB69022B46D1334B002282
:1023EC001A60FFF721FB386108E0FFF71DFB02467E
:1023FC003B69D31A022B01D903236DE0294B1B68CF
:10240C0003F00073002BF0D17B681B6AB3F5803F9F
:10241C0008D1244B5B6823F400327B689B6821490C
:10242C0013434B601F4B5B6823F474127B68196A6F
:10243C007B685B6A0B431B4913434B601B4B0122AC
:10244C001A60FFF7F1FA386108E0FFF7EDFA02467F
:10245C003B69D31A022B01D903233DE0114B1B68B6
:10246C0003F00073002BF0D035E0104B00221A6003
:10247C00FFF7DAFA386108E0FFF7D6FA02463B6953
:10248C00D31A022B01D9032326E0064B1B6803F059
:10249C000073002BF0D11EE07B68DB69012B07D1A8
:1024AC00012319E00010024000700040600042421D
:1024BC000B4B5B68FB60FB6803F480327B681B6A28
:1024CC009A4206D1FB6803F470127B685B6A9A42ED
:1024DC0001D0012300E0002318461837BD4680BD0B
:1024EC000010024080B584B000AF786039607B6822
:1024FC00002B01D10123D0E06A4B1B6803F00703CA
:10250C003A689A4210D9674B1B6823F00702654959
:10251C003B6813430B60634B1B6803F007033A687B
:10252C009A4201D00123B8E07B681B6803F00203D8
:10253C00002B20D07B681B6803F00403002B05D014
:10254C00594B5B68584A43F4E06353607B681B68E3
:10255C0003F00803002B05D0534B5B68524A43F43D
:10256C0060535360504B5B6823F0F0027B689B68B0
:10257C004D4913434B607B681B6803F00103002B30
:10258C0040D07B685B68012B07D1474B1B6803F479
:10259C000033002B15D101237FE07B685B68022B95
:1025AC0007D1414B1B6803F00073002B09D10123A9
:1025BC0073E03D4B1B6803F00203002B01D1012398
:1025CC006BE0394B5B6823F003027B685B68364930
:1025DC0013434B60FFF728FAF8600AE0FFF724FA80
:1025EC000246FB68D31A41F28832934201D9032385
:1025FC0053E02D4B5B6803F00C027B685B689B001F
:10260C009A42EBD1274B1B6803F007033A689A42B6
:10261C0010D2244B1B6823F0070222493B6813435A
:10262C000B60204B1B6803F007033A689A4201D0F9
:10263C00012332E07B681B6803F00403002B08D0F5
:10264C00194B5B6823F4E0627B68DB681649134323
:10265C004B607B681B6803F00803002B09D0124BFE
:10266C005B6823F460527B681B69DB000E491343E3
:10267C004B6000F021F802460B4B5B681B0903F022
:10268C000F030A49CB5C22FA03F3094A1360094B86
:10269C001B681846FFF786F9002318461037BD460D
:1026AC0080BD00BF0020024000100240E82F00084F
:1026BC00500000205400002080B487B000AF0023ED
:1026CC00FB600023BB6000237B6100237B60002345
:1026DC003B611E4B5B68FB60FB6803F00C03042B37
:1026EC0002D0082B03D027E0194B3B6127E0FB6895
:1026FC009B0C03F00F03174AD35C7B60FB6803F45D
:10270C008033002B10D0114B5B685B0C03F0010382
:10271C00114AD35CBB607B680D4A03FB02F2BB68B9
:10272C00B2FBF3F37B6104E07B680C4A02FB03F31E
:10273C007B617B693B6102E0054B3B6100BF3B6900
:10274C0018461C37BD4680BC704700BF00100240C5
:10275C0000127A00F82F00080830000800093D002C
:10276C0080B485B000AF78600A4B1B680A4AA2FBA4
:10277C0003235B0A7A6802FB03F3FB6000BFFB6870
:10278C005A1EFA60002BF9D100BF00BF1437BD46AA
:10279C0080BC704750000020D34D621080B582B0D1
:1027AC0000AF78607B68002B01D1012341E07B688E
:1027BC0093F83D30DBB2002B06D17B68002283F806
:1027CC003C207868FFF756F87B68022283F83D209E
:1027DC007B681A687B6804331946104600F06EFA61
:1027EC007B68012283F846207B68012283F83E2017
:1027FC007B68012283F83F207B68012283F840200C
:10280C007B68012283F841207B68012283F84220F7
:10281C007B68012283F843207B68012283F84420E3
:10282C007B68012283F845207B68012283F83D20D8
:10283C00002318460837BD4680BD000080B485B023
:10284C0000AF78607B6893F83D30DBB2012B01D090
:10285C00012335E07B68022283F83D207B681B68EE
:10286C00DA687B681B6842F00102DA607B681B68DF
:10287C00164A934209D07B681B68B3F1804F04D091
:10288C007B681B68124A934211D17B681B689B685A
:10289C0003F00703FB60FB68062B10D07B681B68FA
:1028AC001A687B681B6842F001021A6007E07B68BB
:1028BC001B681A687B681B6842F001021A600023CF
:1028CC0018461437BD4680BC704700BF002C014031
:1028DC000004004080B582B000AF78607B681B6854
:1028EC001B6903F00203022B22D17B681B68DB6897
:1028FC0003F00203022B1BD17B681B686FF00202F2
:10290C001A617B6801221A777B681B689B6903F04C
:10291C000303002B03D0786800F0B4F905E0786865
:10292C0000F0A7F9786800F0B6F97B6800221A77F6
:10293C007B681B681B6903F00403042B22D17B68A2
:10294C001B68DB6803F00403042B1BD17B681B683A
:10295C006FF004021A617B6802221A777B681B688D
:10296C009B6903F44073002B03D0786800F08AF95C
:10297C0005E0786800F07DF9786800F08CF97B68E8
:10298C0000221A777B681B681B6903F00803082B6D
:10299C0022D17B681B68DB6803F00803082B1BD172
:1029AC007B681B686FF008021A617B6804221A7737
:1029BC007B681B68DB6903F00303002B03D078688A
:1029CC0000F060F905E0786800F053F9786800F0E1
:1029DC0062F97B6800221A777B681B681B6903F01D
:1029EC001003102B22D17B681B68DB6803F01003EB
:1029FC00102B1BD17B681B686FF010021A617B686F
:102A0C0008221A777B681B68DB6903F44073002B80
:102A1C0003D0786800F036F905E0786800F029F901
:102A2C00786800F038F97B6800221A777B681B689D
:102A3C001B6903F00103012B0ED17B681B68DB685B
:102A4C0003F00103012B07D17B681B686FF00102B7
:102A5C001A617868FEF7F2FA7B681B681B6903F051
:102A6C008003802B0ED17B681B68DB6803F080032E
:102A7C00802B07D17B681B686FF080021A61786825
:102A8C0000F06BFA7B681B681B6903F04003402B5A
:102A9C000ED17B681B68DB6803F04003402B07D129
:102AAC007B681B686FF040021A61786800F0FCF8D4
:102ABC007B681B681B6903F02003202B0ED17B68FD
:102ACC001B68DB6803F02003202B07D17B681B6895
:102ADC006FF020021A61786800F036FA00BF0837F0
:102AEC00BD4680BD80B584B000AF786039600023EE
:102AFC00FB737B6893F83C30012B01D10223B4E0CB
:102B0C007B68012283F83C207B68022283F83D20FD
:102B1C007B681B689B68BB60BB6823F07703BB605A
:102B2C00BB6823F47F43BB607B681B68BA689A6000
:102B3C003B681B68B3F5005F3ED0B3F5005F00F255
:102B4C008780B3F5805F00F08680B3F5805F7FD817
:102B5C00702B1AD0702B7BD8602B50D0602B77D871
:102B6C00502B3CD0502B73D8402B58D0402B6FD8C7
:102B7C00302B64D0302B6BD8202B60D0202B67D817
:102B8C00002B5CD0102B5AD062E07B6818683B6835
:102B9C0099683B685A683B68DB6800F05EF97B68B3
:102BAC001B689B68BB60BB6843F07703BB607B68AA
:102BBC001B68BA689A604FE07B6818683B68996834
:102BCC003B685A683B68DB6800F047F97B681B6818
:102BDC009A687B681B6842F480429A603CE07B6890
:102BEC0018683B6859683B68DB681A4600F0BEF809
:102BFC007B681B685021184600F015F92CE07B68A7
:102C0C0018683B6859683B68DB681A4600F0DCF8CA
:102C1C007B681B686021184600F005F91CE07B6896
:102C2C0018683B6859683B68DB681A4600F09EF8E8
:102C3C007B681B684021184600F0F5F80CE07B68B7
:102C4C001A683B681B681946104600F0ECF803E064
:102C5C000123FB7300E000BF7B68012283F83D2059
:102C6C007B68002283F83C20FB7B18461037BD465E
:102C7C0080BD80B483B000AF786000BF0C37BD4618
:102C8C0080BC704780B483B000AF786000BF0C3755
:102C9C00BD4680BC704780B483B000AF786000BF85
:102CAC000C37BD4680BC704780B483B000AF7860F1
:102CBC0000BF0C37BD4680BC7047000080B485B0A7
:102CCC0000AF786039607B681B68FB607B68254AC5
:102CDC00934207D07B68B3F1804F03D07B68224AC4
:102CEC00934208D1FB6823F07003FB603B685B6880
:102CFC00FA681343FB607B681A4A934207D07B68DF
:102D0C00B3F1804F03D07B68174A934208D1FB681C
:102D1C0023F44073FB603B68DB68FA681343FB6089
:102D2C00FB6823F080023B685B691343FB607B68A4
:102D3C00FA681A603B689A687B68DA623B681A68C2
:102D4C007B689A627B68074A934203D13B681A6995
:102D5C007B681A637B6801225A6100BF1437BD4639
:102D6C0080BC7047002C01400004004080B487B048
:102D7C0000AFF860B9607A60FB681B6A7B61FB6826
:102D8C001B6A23F00102FB681A62FB689B693B61BA
:102D9C003B6923F0F0033B617B681B013A691343E9
:102DAC003B617B6923F00A037B617A69BB6813433F
:102DBC007B61FB683A699A61FB687A691A6200BFA9
:102DCC001C37BD4680BC704780B487B000AFF8603C
:102DDC00B9607A60FB681B6A7B61FB681B6A23F035
:102DEC001002FB681A62FB689B693B613B6923F428
:102DFC0070433B617B681B033A6913433B617B69FE
:102E0C0023F0A0037B61BB681B017A6913437B61D0
:102E1C00FB683A699A61FB687A691A6200BF1C37D1
:102E2C00BD4680BC704780B485B000AF7860396017
:102E3C007B689B68FB60FB6823F07003FB603A685F
:102E4C00FB68134343F00703FB607B68FA689A60E6
:102E5C0000BF1437BD4680BC704780B487B000AF4C
:102E6C00F860B9607A603B60FB689B687B617B694A
:102E7C0023F47F437B613B681A027B681A43BB686F
:102E8C0013437A6913437B61FB687A699A6000BFCC
:102E9C001C37BD4680BC704780B485B000AF7860ED
:102EAC0039607B6893F83C30012B01D1022341E05F
:102EBC007B68012283F83C207B68022283F83D204A
:102ECC007B681B685B68FB607B681B689B68BB60EE
:102EDC00FB6823F07003FB603B681B68FA681343C4
:102EEC00FB607B681B68FA685A607B681B68144A35
:102EFC00934209D07B681B68B3F1804F04D07B6888
:102F0C001B68104A93420CD1BB6823F08003BB6052
:102F1C003B685B68BA681343BB607B681B68BA6824
:102F2C009A607B68012283F83D207B68002283F83D
:102F3C003C20002318461437BD4680BC704700BFA8
:102F4C00002C01400004004080B483B000AF7860D6
:102F5C0000BF0C37BD4680BC704780B483B000AF57
:102F6C00786000BF0C37BD4680BC704703460244F6
:102F7C00934200D1704703F8011BF9E770B50026A6
:102F8C000C4D0D4C641BA410A64209D100F01AF88C
:102F9C0000260A4D0A4C641BA410A64205D170BD34
:102FAC0055F8043B98470136EEE755F8043B984733
:102FBC000136F2E70C3000080C3000080C30000829
:102FCC0010300008F8B500BFF8BC08BC9E4670472E
:0C2FDC00F8B500BFF8BC08BC9E4670476A
:102FE80000000000000000000102030406070809B1
:102FF80002030405060708090A0B0C0D0E0F101032
:0430080001020000C1
:04300C003101000886
:043010000D010008A6
:10301400001000200040000001000000010000003A
:103024000100000001000000010000000100000098
:103034000100000001000000010000000100000088
:103044000100000001000000C8000000C8000000EA
:10305400C80000000500000002000000030000009A
:0C3064000024F400100000000100000037
:04000005080019399D
:00000001FF
