:020000040800F2
:100000000028002091250008212500082725000848
:100010002D250008332500083925000800000000C0
:100020000000000000000000000000003F25000864
:100030004B25000800000000572500086325000834
:10004000D9250008D9250008D9250008D925000898
:10005000D9250008D9250008D9250008D925000888
:10006000D9250008D9250008D9250008D925000878
:10007000D9250008D9250008D9250008D925000868
:10008000D9250008D9250008D9250008D925000858
:10009000D9250008D9250008D9250008D925000848
:1000A000D9250008D9250008D9250008D925000838
:1000B00071250008D925000800000000D925000896
:1000C000D92500080000000000000000D925000824
:1000D00000000000D9250008D92500080000000014
:1000E000D9250008D9250008D925000800000000FE
:1000F0000000000000000000000000000000000000
:0C01000000000000000000005FF808F1A3
:10010C0010B5054C237833B9044B13B10448AFF345
:10011C0000800123237010BD44000020000000006B
:10012C00F03B000808B5034B1BB103490348AFF380
:10013C00008008BD0000000048000020F03B0008D3
:10014C0080F0004002E000BF81F0004142001FBF80
:10015C005FEA410392EA030F7FEA226C7FEA236C89
:10016C006AD04FEA1262D2EB1363C1BFD21841407E
:10017C0048404140B8BF5B42192B88BF704710F014
:10018C00004F40F4000020F07F4018BF404211F0B7
:10019C00004F41F4000121F07F4118BF494292EA1F
:1001AC00030F3FD0A2F1010241FA03FC10EB0C004B
:1001BC00C3F1200301FA03F100F0004302D54942D8
:1001CC0060EB4000B0F5000F13D3B0F1807F06D385
:1001DC0040084FEA310102F10102FE2A51D2B1F17D
:1001EC00004F40EBC25008BF20F0010040EA030072
:1001FC007047490040EB0000013A28BFB0F5000FF2
:10020C00EDD2B0FA80FCACF1080CB2EB0C0200FAA7
:10021C000CF0AABF00EBC25052421843BCBFD040F6
:10022C001843704792F0000F81F4000106BF80F470
:10023C0000000132013BB5E74FEA41037FEA226C33
:10024C0018BF7FEA236C21D092EA030F04D092F0FE
:10025C00000F08BF0846704790EA010F1CBF002032
:10026C00704712F07F4F04D1400028BF40F000408F
:10027C00704712F100723CBF00F50000704700F0AF
:10028C00004343F0FE4040F4000070477FEA2262D6
:10029C0016BF08467FEA23630146420206BF5FEAA7
:1002AC00412390EA010F40F4800070474FF00003A7
:1002BC0004E000BF10F0004348BF40425FEA000C6E
:1002CC0008BF704743F0964301464FF000001CE016
:1002DC0050EA010208BF70474FF000030AE000BF6C
:1002EC0050EA010208BF704711F0004302D54042AA
:1002FC0061EB41015FEA010C02BF8446014600201C
:10030C0043F0B64308BFA3F18053A3F50003BCFA36
:10031C008CF2083AA3EBC25310DB01FA02FC6344E3
:10032C0000FA02FCC2F12002BCF1004F20FA02F2EA
:10033C0043EB020008BF20F00100704702F12002DD
:10034C0001FA02FCC2F1200250EA4C0021FA02F23E
:10035C0043EB020008BF20EADC7070474FF0FF0C43
:10036C001CEAD0521EBF1CEAD15392EA0C0F93EA3E
:10037C000C0F6FD01A4480EA010C400218BF5FEAE0
:10038C0041211ED04FF0006343EA501043EA511153
:10039C00A0FB01310CF00040B1F5000F3EBF49004D
:1003AC0041EAD3715B0040EA010062F17F02FD2A51
:1003BC001DD8B3F1004F40EBC25008BF20F0010034
:1003CC00704790F0000F0CF0004C08BF49024CEA4B
:1003DC00502040EA51207F3AC2BFD2F1FF0340EADD
:1003EC00C250704740F400004FF00003013A5DDC4E
:1003FC0012F1190FDCBF00F000407047C2F100028F
:10040C00410021FA02F1C2F1200200FA02FC5FEA7B
:10041C00310040F1000053EA4C0308BF20EADC70C5
:10042C00704792F0000F00F0004C02BF400010F437
:10043C00000F013AF9D040EA0C0093F0000F01F0E4
:10044C00004C02BF490011F4000F013BF9D041EA06
:10045C000C018FE70CEAD15392EA0C0F18BF93EA08
:10046C000C0F0AD030F0004C18BF31F0004CD8D132
:10047C0080EA010000F00040704790F0000F17BFB9
:10048C0090F0004F084691F0000F91F0004F14D0FF
:10049C0092EA0C0F01D142020FD193EA0C0F03D157
:1004AC004B0218BF084608D180EA010000F000405A
:1004BC0040F0FE4040F40000704740F0FE4040F435
:1004CC00400070474FF0FF0C1CEAD0521EBF1CEAD4
:1004DC00D15392EA0C0F93EA0C0F69D0A2EB0302F2
:1004EC0080EA010C49024FEA402037D04FF080538C
:1004FC0043EA111143EA10130CF000408B4238BF51
:10050C005B0042F17D024FF4000C8B4224BF5B1A5E
:10051C0040EA0C00B3EB510F24BFA3EB510340EAAC
:10052C005C00B3EB910F24BFA3EB910340EA9C005A
:10053C00B3EBD10F24BFA3EBD10340EADC001B01CA
:10054C0018BF5FEA1C1CE0D1FD2A3FF650AF8B426E
:10055C0040EBC25008BF20F0010070470CF0004C7B
:10056C004CEA50207F32C2BFD2F1FF0340EAC250A6
:10057C00704740F400004FF00003013A37E792F067
:10058C00000F00F0004C02BF400010F4000F013AC5
:10059C00F9D040EA0C0093F0000F01F0004C02BFC0
:1005AC00490011F4000F013BF9D041EA0C0195E729
:1005BC000CEAD15392EA0C0F08D142027FF47DAFC2
:1005CC0093EA0C0F7FF470AF084676E793EA0C0FB2
:1005DC0004D14B023FF44CAF08466EE730F0004CB0
:1005EC0018BF31F0004CCAD130F000427FF45CAF40
:1005FC0031F000437FF43CAF5FE700BF4FF0FF3CAE
:10060C0006E000BF4FF0010C02E000BF4FF0010C00
:10061C004DF804CD4FEA40024FEA41037FEA226CC9
:10062C0018BF7FEA236C11D001B052EA530C18BFEB
:10063C0090EA010F58BFB2EB030088BFC81738BF50
:10064C006FEAE17018BF40F0010070477FEA226C3E
:10065C0002D15FEA402C05D17FEA236CE4D15FEA3A
:10066C00412CE1D05DF8040B704700BF844608466E
:10067C006146FFE70FB5FFF7C9FF002848BF10F12F
:10068C00000F0FBD4DF808EDFFF7F4FF0CBF012074
:10069C0000205DF808FB00BF4DF808EDFFF7EAFFFE
:1006AC0034BF012000205DF808FB00BF4DF808EDB9
:1006BC00FFF7E0FF94BF012000205DF808FB00BFAE
:1006CC004DF808EDFFF7D2FF94BF012000205DF834
:1006DC0008FB00BF4DF808EDFFF7C8FF34BF012041
:1006EC0000205DF808FB00BF4FEA4002B2F1FE4F5C
:1006FC000FD34FF09E03B3EB12620DD94FEA0023D8
:10070C0043F0004310F0004F23FA02F018BF4042B0
:10071C0070474FF00000704712F1610F01D1420297
:10072C0005D110F0004008BF6FF0004070474FF04B
:10073C000000704780B400AF034B01221A6000BF69
:10074C00BD4680BC704700BF6000002080B400AF85
:10075C00034B01221A6000BFBD4680BC704700BF2E
:10076C006400002080B400AF064B1B68012B04D141
:10077C00044B00221A60012300E000231846BD46FA
:10078C0080BC70476400002080B400AF064B1B682F
:10079C00012B04D1044B00221A60012300E000233A
:1007AC001846BD4680BC70476000002080B500AF85
:1007BC00224B1B68224A1360224B1B681F4A136092
:1007CC004FF40051204802F0EDF903461A461D4B38
:1007DC001A601B4B1A68194B1B689A422BD1174B8A
:1007EC001A68184B1B689A4225D1184B1A68154B7E
:1007FC001B689A420DD0134B1B68144A1360114BA3
:10080C001B68002B17D1FFF795FF114BC8221A60FC
:10081C0011E00F4B1B68013B0D4A13600C4B1B681E
:10082C00002B08D1074B1B68002B04D1FFF782FF6C
:10083C00074BC8221A6000BF80BD00BF0400002017
:10084C000000002008000020000801400C000020DF
:10085C002000002080B500AF2E4B1B682E4A136081
:10086C002E4B1B682B4A13604FF480412C4802F02E
:10087C0099F903461A46294B1A60274B1A68254BDF
:10088C001B689A4243D1234B1A68244B1B689A422B
:10089C003DD1244B1A68214B1B689A4219D01F4B2F
:1008AC001B68204A13601D4B1B68002B2FD1FFF7D0
:1008BC004DFF1D4B1B6801331B4A13601A4B1B6801
:1008CC00642B02D1184B00221A60184BC8221A60F4
:1008DC001DE0164B1B68013B144A1360134B1B683D
:1008EC00002B14D10D4B1B68002B10D1FFF72EFFE2
:1008FC000D4B1B6801330C4A13600B4B1B68642BAC
:10090C0002D1094B00221A60084BC8221A6000BFA2
:10091C0080BD00BF14000020100000201800002033
:10092C00000801401C0000206C000020200000206A
:10093C0080B500AF714B1B68013B032B00F2D580D7
:10094C0001A252F823F000BF65090008AD090008A8
:10095C002B0A0008810A000801F030FB674B0222C9
:10096C001A60674B1B6867491846FFF7F7FC03468C
:10097C001846FFF7B9FE0346184601F07FFC624BA0
:10098C001B6860491846FFF7E9FC03461846FFF759
:10099C00ABFE0346184601F085FC01F033FAABE0E0
:1009AC0001F0D8F9594B1B68012B0FD101F040FA1B
:1009BC00574B1B6853491846FFF7D0FC03461846A3
:1009CC00FFF792FE0346184601F06CFC514B1B6876
:1009DC00012B14D1494B03221A604B4B1B6849491C
:1009EC001846FFF7BBFC03461846FFF77DFE03468F
:1009FC00184601F043FC00F091F800F0ADF8FFF759
:100A0C00C3FE0346012B72D1434B00221A603B4BB1
:100A1C000D221A604FF47A7001F030FC67E001F09F
:100A2C00AFF901F0D9F93B4B1B68012B12D1334BB9
:100A3C0004221A60364B1B6832491846FFF78EFCAD
:100A4C0003461846FFF750FE0346184601F016FC05
:100A5C0000F064F8FFF798FE0346012B49D12E4BAA
:100A6C0000221A60254B0D221A604FF47A7001F0A7
:100A7C0005FC3EE001F09AF901F0AEF9254B1B683C
:100A8C00012B22D11D4B02221A601D4B1B681D49E4
:100A9C001846FFF763FC03461846FFF725FE03468E
:100AAC00184601F0EBFB184B1B6816491846FFF76C
:100ABC0055FC03461846FFF717FE0346184601F08F
:100ACC00F1FB01F09FF900F029F8FFF75DFE0346FA
:100ADC00012B10D1104B00221A60084B0D221A600A
:100AEC004FF47A7001F0CAFB05E000BF04E000BFD0
:100AFC0002E000BF00E000BF00BF80BD6800002026
:100B0C00240000200000C84228000020980000208B
:100B1C002C000020900000206C00002080B400AF5E
:100B2C00074B1B68074A1360074B1B68074A136087
:100B3C00074B1B68074A136000BFBD4680BC70475B
:100B4C002400002078000020280000207C000020D9
:100B5C002C0000208000002080B400AF074B1B68E5
:100B6C00074A1360074B1B68074A1360074B1B6847
:100B7C00074A136000BFBD4680BC704724000020AC
:100B8C008400002028000020880000202C00002079
:100B9C008C00002098B500AF8B4B1B68013B032BDE
:100BAC0000F2088101A252F823F000BFC90B000823
:100BBC00D50B00087B0C00081F0D0008834B01228D
:100BCC001A60FFF7ABFFFCE0804B1B68012B1BD1BD
:100BDC007F4B1B68002B17D17D4B1C687D4B1B6812
:100BEC007D491846FFF76EFC03461846FFF77CFD5F
:100BFC0003461946204600F0FDFE754B01221A6093
:100C0C00322001F063FBD7E0704B1B68012B40F0E6
:100C1C00D3806F4B1B68012B40F0CE806C4B1C6853
:100C2C006C4B1B681846FFF75FFD01466B4B83FB53
:100C3C0001239A10CB17D21A13469B0013445B0066
:100C4C00CA1A1146204600F0D5FE624B1B684FF0C5
:100C5C007E511846FFF778FA03461A465D4B1A6028
:100C6C005B4B00221A60322001F030FBA4E0574BA2
:100C7C001B68012B1BD1564B1B68002B17D1544BF7
:100C8C001C68574B1B6854491846FFF71BFC03465E
:100C9C001846FFF729FD03461946204600F0AAFE28
:100CAC004B4B01221A60322001F010FB86E0474BBF
:100CBC001B68012B40F08280454B1B68012B7DD1BA
:100CCC00434B1C68464B1B681846FFF70DFD01464D
:100CDC00424B83FB01239A10CB17D21A13469B006D
:100CEC0013445B00CA1A1146204600F083FE3C4BAD
:100CFC001B684FF07E511846FFF726FA03461A463A
:100D0C00374B1A60324B00221A60322001F0DEFAA7
:100D1C0054E02E4B1B68012B1BD12D4B1B68002B59
:100D2C0017D12B4B1C682F4B1B682B491846FFF710
:100D3C00C9FB03461846FFF7D7FC03461946204665
:100D4C0000F058FE224B01221A60322001F0BEFA4C
:100D5C0036E01E4B1B68012B32D11D4B1B68012B3F
:100D6C002ED11B4B1C681F4B1B681846FFF7BCFC95
:100D7C0001461A4B83FB01239A10CB17D21A134648
:100D8C009B0013445B00CA1A1146204600F032FE49
:100D9C00144B1B684FF07E511846FFF7D5F90346EC
:100DAC001A46104B1A600A4B00221A60322001F0CE
:100DBC008DFA05E000BF04E000BF02E000BF00E0D8
:100DCC0000BF00BF98BD00BF68000020A00000203D
:100DDC0070000020780000200000204167666666E5
:100DEC007C0000208000002098B500AF9D4B1B6854
:100DFC00013B032B00F2778101A252F823F000BFD4
:100E0C001D0E0008290E00088B0F00083110000879
:100E1C00954B01221A60FFF79FFE6BE1934B1B6809
:100E2C004FF000011846FFF737FC0346002B52D059
:100E3C008D4B1B68012B1BD18D4B1B68002B17D1C5
:100E4C008B4B1C688B4B1B688B491846FFF73AFB86
:100E5C0003461846FFF748FC03461946204600F0A7
:100E6C00D1FB834B01221A60322001F043FA85E05A
:100E7C007D4B1B68012B40F038817D4B1B68012B8F
:100E8C0040F033817A4B1C687A4B1B681846FFF78D
:100E9C002BFC0146794B83FB01239A10CB17D21AFA
:100EAC0013469B0013445B00CA1A1146204600F0FF
:100EBC00A9FB704B1B684FF07E511846FFF744F9A5
:100ECC0003461A466B4B1A60694B00221A6032209B
:100EDC0001F010FA09E1644B1B68012B1BD1644B28
:100EEC001B68002B17D1624B1C68604B1B68624956
:100EFC001846FFF7E7FA03461846FFF7F5FB0346DB
:100F0C001946204600F07EFB594B01221A60322014
:100F1C0001F0F0F932E0544B1B68012B40F0E580F6
:100F2C00534B1B68012B40F0E080514B1C684F4B1E
:100F3C001B681846FFF7D8FB0146504B83FB012377
:100F4C009A10CB17D21A13469B0013445B00CA1A93
:100F5C001146204600F056FB444B1B684FF07E5167
:100F6C001846FFF7F1F803461A46404B1A60404BFF
:100F7C0000221A60322001F0BDF9B6E0B5E03A4B20
:100F8C001B68012B1BD13A4B1B68002B17D1384B1C
:100F9C001C683B4B1B6838491846FFF793FA03460D
:100FAC001846FFF7A1FB03461946204600F02AFB22
:100FBC002F4B01221A60322001F09CF997E02A4B4A
:100FCC001B68012B40F09380294B1B68012B40F0D0
:100FDC008E80274B1C682A4B1B681846FFF784FB36
:100FEC000146264B83FB01239A10CB17D21A1346CA
:100FFC009B0013445B00CA1A1146204600F002FB0A
:10100C001F4B1B684FF07E511846FFF79DF80346A7
:10101C001A461B4B1A60164B00221A60322001F044
:10102C0069F964E0104B1B68012B2BD1104B1B682A
:10103C00002B27D10E4B1C68114B1B680E49184610
:10104C00FFF740FA03461846FFF74EFB03461946D6
:10105C00204600F0D7FA064B01221A60322001F02C
:10106C0049F946E068000020A80000208800002014
:10107C00740000208C00002000002041676666662A
:10108C00840000201C4B1B68012B32D11B4B1B68AE
:10109C00012B2ED1194B1C68194B1B681846FFF7F6
:1010AC0023FB0146174B83FB01239A10CB17D21A53
:1010BC0013469B0013445B00CA1A1146204600F0ED
:1010CC00A1FA0F4B1B684FF07E511846FFF73CF806
:1010DC0003461A460A4B1A60084B00221A6032204B
:1010EC0001F008F905E000BF04E000BF02E000BF1A
:1010FC0000E000BF00BF98BDA800002074000020D5
:10110C00840000206766666680B500AF924B1B6852
:10111C000D3B032B00F2158101A252F823F000BF06
:10112C003D1100089B1100082F120008BF12000887
:10113C0000F044FF00F058FF012000F06BFFFFF7B8
:10114C0023FB0346012B09D1844B00221A60824BEE
:10115C000E221A604FF4FA7001F090F8804B1B6865
:10116C00012B40F0F0807C4B02221A60FFF7D6FC7A
:10117C007C4B1B687C491846FFF7F0F80346184671
:10118C00FFF7B2FA0346184601F078F8DBE00220CC
:10119C0000F040FF714B1B68184601F027F8704BAC
:1011AC001B68012B12D16C4B02221A60FFF7B6FCA4
:1011BC006C4B1B686C491846FFF7D0F80346184671
:1011CC00FFF792FA0346184601F058F8FFF7DCFADD
:1011DC000346012B09D1614B00221A605E4B0F2292
:1011EC001A604FF4FA7001F049F8FFF7BBFA0346A6
:1011FC00012B40F0AA80594B1B68184600F02EFEBC
:10120C00C82001F03BF8564B1B68012B40F09D8029
:10121C00514B02221A60FFF781FC504B00221A60DE
:10122C0093E0032000F0F6FE4C4B1B68184600F0D0
:10123C00DDFF4B4B1B68012B12D1474B02221A606E
:10124C00FFF76CFC494B1B6847491846FFF786F8BB
:10125C0003461846FFF748FA0346184601F00EF805
:10126C00FFF792FA0346012B09D13C4B00221A607E
:10127C00394B10221A604FF4FA7000F0FFFFFFF7A1
:10128C0071FA0346012B62D1344B1B68184600F0EF
:10129C005BFEC82000F0F2FF314B1B68012B56D1CE
:1012AC002D4B02221A60FFF739FC2C4B00221A60DE
:1012BC004DE0042000F0AEFE284B1B68184600F0F1
:1012CC0095FF274B1B68012B12D1234B02221A606E
:1012DC00FFF724FC264B1B6823491846FFF73EF802
:1012EC0003461846FFF700FA0346184600F0C6FFFF
:1012FC00FFF74AFA0346012B09D1184B00221A605A
:10130C00154B0D221A604FF4FA7000F0B7FFFFF77F
:10131C0029FA0346012B1CD1104B1B68184600F010
:10132C00D7FDC82000F0AAFF0D4B1B68012B10D174
:10133C00094B02221A60FFF7F1FB084B00221A60DE
:10134C0007E000BF06E000BF04E000BF02E000BF02
:10135C0000E000BF00BF80BD680000206C000020D2
:10136C0090000020240000200000C842280000202B
:10137C002C00002080B500AF01F02AF900F018F81D
:10138C0000F09EF800F050F8074802F067F8074BA1
:10139C0001221A60FFF7FEFBFFF726FDFFF7C8FAE4
:1013AC00FFF7B2FEF6E700BFB8000020680000208F
:1013BC0080B590B000AF07F1180328220021184621
:1013CC0002F008FC3B1D00221A605A609A60DA6039
:1013DC001A610223BB610123BB621023FB62002351
:1013EC007B6307F11803184601F00CFC0346002B35
:1013FC0001D000F001F90F237B600023BB600023B8
:10140C00FB6000233B6100237B613B1D00211846E0
:10141C0001F078FE0346002B01D000F0EDF800BF80
:10142C004037BD4680BD000080B586B000AF07F1E7
:10143C00080300221A605A609A60DA603B46002268
:10144C001A605A601D4B4FF080421A601B4B41F6DC
:10145C003F725A60194B00229A60184B0922DA60CD
:10146C00164B00221A61154B00229A61134801F0A9
:10147C00A5FF0346002B01D000F0BEF84FF48053BB
:10148C00BB6007F1080319460C4802F03BF9034610
:10149C00002B01D000F0B0F800233B6000237B60F0
:1014AC003B461946054802F007FB0346002B01D0CA
:1014BC0000F0A2F800BF1837BD4680BDB800002070
:1014CC0080B588B000AF07F1100300221A605A6093
:1014DC009A60DA603D4B9B693C4A43F01003936180
:1014EC003A4B9B6903F01003FB60FB68374B9B691D
:1014FC00364A43F004039361344B9B6903F00403B5
:10150C00BB60BB68314B9B69304A43F00803936165
:10151C002E4B9B6903F008037B607B68002241F62D
:10152C00F8712B4801F055FB00224FF67F612948DA
:10153C0001F04FFB4FF400533B6100237B6101230F
:10154C00BB6107F110031946234801F0B1F941F2D0
:10155C00F8133B6101237B610023BB610223FB6118
:10156C0007F1100319461A4801F0A2F94FF67F63F0
:10157C003B6101237B610023BB610223FB6107F10B
:10158C0010031946134801F093F94FF460633B6163
:10159C0001237B610123BB610223FB6107F1100373
:1015AC0019460B4801F084F94FF4C0433B6100230A
:1015BC007B610123BB6107F110031946044801F05C
:1015CC0077F900BF2037BD4680BD00BF0010024038
:1015DC0000080140000C01400010014080B582B0B1
:1015EC0000AF786000F0C2FEFFF7E0F8FFF732F9C9
:1015FC0000BF0837BD4680BD80B400AF72B600BFD7
:10160C00FEE7000080B582B000AF786039607B687F
:10161C00002B0BD100224FF48061C54801F0D9FAA0
:10162C0001224FF48051C24801F0D3FA7B68012BA0
:10163C000BD101224FF48061BD4801F0CAFA00229F
:10164C004FF48051BA4801F0C4FA3B68092B00F200
:10165C00C98101A252F823F08D160008E316000888
:10166C00391700088F170008E51700083B18000809
:10167C0091180008E7180008451900089B19000884
:10168C0000224FF40071AB4801F0A3FA00224FF492
:10169C008061A84801F09DFA00224FF40061A54832
:1016AC0001F097FA00224FF48051A24801F091FA10
:1016BC0000224FF400519F4801F08BFA00224FF4A6
:1016CC0080419C4801F085FA01224FF40041994871
:1016DC0001F07FFA87E101224FF40071954801F087
:1016EC0078FA00224FF48061924801F072FA0022DD
:1016FC004FF400618F4801F06CFA01224FF48051D5
:10170C008C4801F066FA01224FF40051894801F02F
:10171C0060FA01224FF48041864801F05AFA012206
:10172C004FF40041834801F054FA5CE100224FF47D
:10173C000071804801F04DFA00224FF480617D4821
:10174C0001F047FA01224FF400617A4801F041FAA6
:10175C0000224FF48051774801F03BFA00224FF4FD
:10176C000051744801F035FA01224FF48041714860
:10177C0001F02FFA00224FF400416E4801F029FAD3
:10178C0031E100224FF400716A4801F022FA002284
:10179C004FF48061674801F01CFA00224FF400619D
:1017AC00644801F016FA00224FF48051614801F0B0
:1017BC0010FA01224FF400515E4801F00AFA01229E
:1017CC004FF480415B4801F004FA00224FF40041D1
:1017DC00584801F0FEF906E101224FF4007155481A
:1017EC0001F0F7F900224FF48061524801F0F1F951
:1017FC0000224FF400614F4801F0EBF901224FF445
:10180C0080514C4801F0E5F901224FF40051494850
:10181C0001F0DFF900224FF48041464801F0D9F97C
:10182C0000224FF40041434801F0D3F9DBE00022E1
:10183C004FF400713F4801F0CCF901224FF4806164
:10184C003C4801F0C6F900224FF40061394801F020
:10185C00C0F900224FF48051364801F0BAF9012248
:10186C004FF40051334801F0B4F900224FF4804199
:10187C00304801F0AEF900224FF400412D4801F040
:10188C00A8F9B0E000224FF400712A4801F0A1F948
:10189C0001224FF48061274801F09BF900224FF49C
:1018AC000061244801F095F900224FF48051214841
:1018BC0001F08FF900224FF400511E4801F089F914
:1018CC0000224FF480411B4801F083F900224FF4B1
:1018DC000041184801F07DF985E000224FF40071B9
:1018EC00144801F076F900224FF48061114801F0A0
:1018FC0070F900224FF400610E4801F06AF90122E0
:10190C004FF480510B4801F064F901224FF400515F
:10191C00084801F05EF901224FF48041054801F0BE
:10192C0058F901224FF40041024801F052F95AE0F3
:10193C0000080140000C014000224FF400712C48BB
:10194C0001F047F900224FF48061294801F041F978
:10195C0000224FF40061264801F03BF900224FF4BD
:10196C008051234801F035F900224FF400512048F2
:10197C0001F02FF900224FF480411D4801F029F9A4
:10198C0000224FF400411A4801F023F92BE0002209
:10199C004FF40071164801F01CF900224FF48061DD
:1019AC00134801F016F900224FF40061104801F0C1
:1019BC0010F900224FF480510D4801F00AF9012270
:1019CC004FF400510A4801F004F900224FF4804111
:1019DC00074801F0FEF800224FF40041044801F0E2
:1019EC00F8F800E000BF00BF0837BD4680BD00BF5F
:1019FC00000C014080B582B000AF786039607B6824
:101A0C00002B0BD100224FF40071D04801F0E1F80B
:101A1C0001224FF40061CD4801F0DBF87B68012B0B
:101A2C000BD101224FF40071C84801F0D2F800220A
:101A3C004FF40061C54801F0CCF83B68092B00F26B
:101A4C007F8101A252F823F07D1A0008C51A000804
:101A5C000D1B0008551B00089D1B0008E51B00080A
:101A6C002D1C0008751C0008BD1C0008051D000875
:101A7C0000220121B64801F0ACF800220221B44842
:101A8C0001F0A7F800220421B14801F0A2F80022CD
:101A9C000821AF4801F09DF800221021AC4801F05C
:101AAC0098F800222021AA4801F093F80122402145
:101ABC00A74801F08EF844E101220121A44801F06D
:101ACC0088F800220221A24801F083F800220421A8
:101ADC009F4801F07EF8012208219D4801F079F819
:101AEC00012210219A4801F074F801222021984813
:101AFC0001F06FF801224021954801F06AF820E1CD
:101B0C0000220121924801F064F800220221904841
:101B1C0001F05FF8012204218D4801F05AF80022EF
:101B2C0008218B4801F055F800221021884801F05B
:101B3C0050F801222021864801F04BF80022402168
:101B4C00834801F046F8FCE000220121804801F0B6
:101B5C0040F8002202217E4801F03BF800220421CB
:101B6C007B4801F036F800220821794801F031F861
:101B7C0001221021764801F02CF801222021744812
:101B8C0001F027F800224021714801F022F8D8E03A
:101B9C00012201216E4801F01CF8002202216C4840
:101BAC0001F017F800220421694801F012F8012213
:101BBC000821674801F00DF801221021644801F05A
:101BCC0008F800222021624801F003F8002240218D
:101BDC005F4800F0FEFFB4E0002201215C4800F0F9
:101BEC00F8FF012202215A4800F0F3FF00220421E1
:101BFC00574800F0EEFF00220821554800F0E9FF9D
:101C0C0001221021524800F0E4FF0022202150480C
:101C1C0000F0DFFF002240214D4800F0DAFF90E099
:101C2C00002201214A4800F0D4FF01220221484839
:101C3C0000F0CFFF00220421454800F0CAFF00222B
:101C4C000821434800F0C5FF00221021404800F055
:101C5C00C0FF002220213E4800F0BBFF00224021A3
:101C6C003B4800F0B6FF6CE000220121384800F040
:101C7C00B0FF00220221364800F0ABFF0022042105
:101C8C00334800F0A6FF01220821314800F0A1FFE3
:101C9C00012210212E4800F09CFF012220212C480B
:101CAC0000F097FF01224021294800F092FF48E004
:101CBC0000220121264800F08CFF0022022124483A
:101CCC0000F087FF00220421214800F082FF00224F
:101CDC0008211F4800F07DFF002210211C4800F055
:101CEC0078FF002220211A4800F073FF00224021C7
:101CFC00174800F06EFF24E000220121144800F088
:101D0C0068FF00220221124800F063FF0022042128
:101D1C000F4800F05EFF002208210D4800F059FF2B
:101D2C00012210210A4800F054FF0022202108480B
:101D3C0000F04FFF00224021054800F04AFF00E070
:101D4C0000BF00BF0837BD4680BD00BF0008014082
:101D5C00000C014080B500AF01222021074800F0A3
:101D6C0038FF00228021054800F033FF002240217B
:101D7C00024800F02EFF00BF80BD00BF00080140EC
:101D8C0080B500AF00222021074800F022FF01227D
:101D9C008021054800F01DFF00224021024800F080
:101DAC0018FF00BF80BD00BF0008014080B500AF28
:101DBC0000222021074800F00CFF0022802105485A
:101DCC0000F007FF01224021024800F002FF00BF93
:101DDC0080BD00BF0008014080B500AF0122082182
:101DEC00074800F0F6FE00224FF48071044800F022
:101DFC00F0FE00221021024800F0EBFE00BF80BD77
:101E0C000008014080B500AF00220821074800F00F
:101E1C00E0FE01224FF48071044800F0DAFE00224B
:101E2C001021024800F0D5FE00BF80BD0008014023
:101E3C0080B500AF00220821074800F0CAFE00223E
:101E4C004FF48071044800F0C4FE012210210248B6
:101E5C0000F0BFFE00BF80BD0008014080B582B01D
:101E6C0000AF78607868FEF725FA034613491846E8
:101E7C00FEF728FB034619461846FEF767F903469A
:101E8C001A460F4B1A607868FEF714FA03460B4992
:101E9C001846FEF717FB03460A491846FEF75EFA8A
:101EAC0003461A46084B1A607868FEF703FA034695
:101EBC00064A136000BF0837BD4680BD0000A04035
:101ECC002C000020000040402800002024000020AE
:101EDC0080B582B000AF78607868FEF7EBF9034606
:101EEC004FF080411846FEF7EDFA034611491846AB
:101EFC00FEF734FA03461A460F4B1A607868FEF761
:101F0C00D9F903464FF080411846FEF7DBFA034639
:101F1C000A491846FEF722FA03461A46084B1A607D
:101F2C007868FEF7C7F90346064A136000BF083706
:101F3C00BD4680BD0000A0402400002000004040B1
:101F4C00280000202C00002080B582B000AF786003
:101F5C007868FEF7AFF9034613491846FEF7B2FA54
:101F6C00034612491846FEF7F9F903461A46104B78
:101F7C001A607868FEF79EF903460B491846FEF77F
:101F8C00A1FA034619461846FEF7E0F803461A462E
:101F9C00084B1A607868FEF78DF90346064A136001
:101FAC0000BF0837BD4680BD000040400000A04087
:101FBC00240000202C0000202800002080B500AF59
:101FCC0000222021074800F004FE00228021054851
:101FDC0000F0FFFD00224021024800F0FAFD00BF96
:101FEC0080BD00BF0008014080B500AF0022082171
:101FFC00074800F0EEFD00224FF48071044800F019
:10200C00E8FD00221021024800F0E3FD00BF80BD76
:10201C000008014080B582B000AF78607B68013B5E
:10202C00032B00F2D18001A252F823F049200008C2
:10203C00A92000080D21000871210008FFF7BEFF40
:10204C00FFF7D2FF674B1B68012B10D1664B1B6847
:10205C00002B0CD1644B1B6800211846FFF7CAFCFF
:10206C00614B01221A60322000F058F9AEE05D4B52
:10207C001B68012B40F0AA805B4B1B68012B40F0C6
:10208C00A580594B1B6801211846FFF7B3FC564B32
:10209C0000221A60322000F041F997E0514B1B6886
:1020AC00012B14D1504B1B68002B10D14E4B1B68CD
:1020BC0000211846FFF79EFCFFF74CFEFFF794FF3C
:1020CC00494B01221A60322000F028F980E0454B80
:1020DC001B68012B7CD1444B1B68012B78D1424BE4
:1020EC001B6802211846FFF785FCFFF775FEFFF70A
:1020FC0065FF3D4B00221A60322000F00FF967E0BB
:10210C00384B1B68012B14D1374B1B68002B10D19B
:10211C00354B1B6800211846FFF76CFCFFF746FE99
:10212C00FFF762FF304B01221A60322000F0F6F804
:10213C0050E02C4B1B68012B4CD12B4B1B68012BFB
:10214C0048D1294B1B6803211846FFF753FCFFF7B6
:10215C006FFEFFF733FF244B00221A60322000F091
:10216C00DDF837E01F4B1B68012B14D11E4B1B688D
:10217C00002B10D11C4B1B6800211846FFF73AFCB2
:10218C00FFF7FEFDFFF730FF174B01221A603220DC
:10219C0000F0C4F820E0134B1B68012B1CD1124B30
:1021AC001B68012B18D1104B1B6804211846FFF734
:1021BC0021FCFFF727FEFFF701FF0B4B00221A60F3
:1021CC00322000F0ABF807E000BF06E000BF04E0EF
:1021DC0000BF02E000BF00E000BF00BF0837BD46F3
:1021EC0080BD00BF300000207000002080B582B0A0
:1021FC0000AF78601E4B1B68012B16D11D4B1B6862
:10220C00002B12D11B4B18687B681B4A82FB0312F4
:10221C009210DB17D31A1946FFF7F4F9154B01226C
:10222C001A60322000F08EF81DE0114B1B68012B58
:10223C0019D1104B1B68012B15D10E4B18687A68FD
:10224C000D4B83FB02139910D317C91A0B469B0035
:10225C000B445B00D11AFFF7D5F9064B00221A602C
:10226C00322000F06FF800BF0837BD4680BD00BFBC
:10227C0034000020740000206766666680B483B06A
:10228C0000AF7860054A7B681360054B00221A602A
:10229C0000BF0C37BD4680BC704700BF94000020C7
:1022AC009000002080B483B000AF7860054A7B6852
:1022BC001360054B00221A6000BF0C37BD4680BC72
:1022CC00704700BF9C0000209800002080B483B0B1
:1022DC0000AF7860054A7B681360054B00221A60DA
:1022EC0000BF0C37BD4680BC704700BFA400002067
:1022FC00A000002080B483B000AF7860054A7B68F2
:10230C001360054B00221A6000BF0C37BD4680BC21
:10231C00704700BFAC000020A800002080B483B040
:10232C0000AF7860054A7B681360054B00221A6089
:10233C0000BF0C37BD4680BC704700BFB00000200A
:10234C003000002080B483B000AF7860054A7B6811
:10235C001360054B00221A6000BF0C37BD4680BCD1
:10236C00704700BFB40000203400002080B400AFE0
:10237C00314B1B68002B0BDD2F4B1B68013B2E4A8E
:10238C0013602D4B1B68002B02DC2C4B01221A60B6
:10239C002B4B1B68002B0BDD294B1B68013B284A80
:1023AC001360274B1B68002B02DC264B01221A60A2
:1023BC00254B1B68002B0BDD234B1B68013B224A72
:1023CC001360214B1B68002B02DC204B01221A608E
:1023DC001F4B1B68002B0BDD1D4B1B68013B1C4A64
:1023EC0013601B4B1B68002B02DC1A4B01221A607A
:1023FC00194B1B68002B0BDD174B1B68013B164A56
:10240C001360154B1B68002B02DC144B01221A6065
:10241C00134B1B68002B0BDD114B1B68013B104A47
:10242C0013600F4B1B68002B02DC0E4B01221A6051
:10243C0000BFBD4680BC7047940000209000002077
:10244C009C00002098000020A4000020A000002088
:10245C00AC000020A8000020B000002030000020BC
:10246C00B40000203400002080B485B000AF154BC0
:10247C009B69144A43F001039361124B9B6903F06F
:10248C000103BB60BB680F4BDB690E4A43F0805302
:10249C00D3610C4BDB6903F080537B607B680A4B88
:1024AC005B68FB60FB6823F0E063FB60FB6843F058
:1024BC008063FB60044AFB68536000BF1437BD4661
:1024CC0080BC7047001002400000014080B584B011
:1024DC0000AF78607B681B68B3F1804F13D10C4B55
:1024EC00DB690B4A43F00103D361094BDB6903F051
:1024FC000103FB60FB68002200211C2000F0A1F905
:10250C001C2000F0BAF900BF1037BD4680BD00BFDB
:10251C000010024080B400AFFEE780B400AFFEE7CD
:10252C0080B400AFFEE780B400AFFEE780B400AF2C
:10253C00FEE780B400AF00BFBD4680BC704780B4DE
:10254C0000AF00BFBD4680BC704780B400AF00BF79
:10255C00BD4680BC704780B500AF00F07FF800BF6F
:10256C0080BD000080B500AF024800F0C3FF00BF83
:10257C0080BD00BFB800002080B400AF00BFBD46D6
:10258C0080BC7047FFF7F8FF0B480C490C4A00233E
:10259C0002E0D458C4500433C4188C42F9D3094A0D
:1025AC00094C002301E013600432A242FBD301F07A
:1025BC00EDFAFEF7DFFE704700000020440000201B
:1025CC00343C00084400002004010020FEE7000019
:1025DC0080B500AF084B1B68074A43F0100313602B
:1025EC00032000F023F90F2000F008F8FFF73CFF60
:1025FC000023184680BD00BF0020024080B582B089
:10260C0000AF7860124B1A68124B1B7819464FF4C6
:10261C007A73B3FBF1F3B2FBF3F3184600F03BF91A
:10262C000346002B01D001230EE07B680F2B0AD848
:10263C00002279684FF0FF3000F003F9064A7B68FE
:10264C001360002300E0012318460837BD4680BD07
:10265C0038000020400000203C00002080B400AF77
:10266C00054B1B781A46054B1B681344034A136031
:10267C0000BFBD4680BC7047400000200001002018
:10268C0080B400AF024B1B681846BD4680BC704737
:10269C000001002080B485B000AF78607B6803F047
:1026AC000703FB600C4BDB68BB60BA684FF6FF039B
:1026BC001340BB60FB681A02BB68134343F0BF6353
:1026CC0043F40033BB60044ABB68D36000BF1437CB
:1026DC00BD4680BC704700BF00ED00E080B400AF89
:1026EC00044BDB681B0A03F007031846BD4680BC8D
:1026FC00704700BF00ED00E080B483B000AF03462C
:10270C00FB7197F90730002B0BDBFB7903F01F02F1
:10271C00064997F907305B09012000FA02F241F8EB
:10272C00232000BF0C37BD4680BC704700E100E0A1
:10273C0080B483B000AF03463960FB7197F9073062
:10274C00002B0ADB3B68DAB20C4997F9073012010F
:10275C00D2B20B4483F800230AE03B68DAB2084992
:10276C00FB7903F00F03043B1201D2B20B441A762F
:10277C0000BF0C37BD4680BC704700BF00E100E0D5
:10278C0000ED00E080B489B000AFF860B9607A6009
:10279C00FB6803F00703FB61FB69C3F10703042B20
:1027AC0028BF0423BB61FB690433062B02D9FB69E8
:1027BC00033B00E000237B614FF0FF32BB6902FA60
:1027CC0003F3DA43BB681A407B699A404FF0FF3140
:1027DC007B6901FA03F3D9437B680B40134318461A
:1027EC002437BD4680BC704780B582B000AF78609E
:1027FC007B68013BB3F1807F01D301230FE00A4AD0
:10280C007B68013B53600F214FF0FF30FFF790FFC7
:10281C00054B00229A60044B07221A6000231846CD
:10282C000837BD4680BD00BF10E000E080B582B027
:10283C0000AF78607868FFF72DFF00BF0837BD4602
:10284C0080BD80B586B000AF0346B9607A60FB737B
:10285C0000237B61FFF742FF78617A68B968786979
:10286C00FFF790FF024697F90F3011461846FFF715
:10287C005FFF00BF1837BD4680BD80B582B000AF8A
:10288C000346FB7197F907301846FFF735FF00BF79
:10289C000837BD4680BD80B582B000AF78607868DF
:1028AC00FFF7A2FF034618460837BD4680BD00005F
:1028BC0080B48BB000AF7860396000237B6200235A
:1028CC003B6248E101227B6A02FA03F3FB613B683D
:1028DC001B68FA691340BB61BA69FB699A4240F004
:1028EC0037813B685B68A34A93425ED0A14A93420E
:1028FC0075D8A14A934258D09F4A93426FD89F4AA9
:10290C00934252D09D4A934269D89D4A93424CD0EF
:10291C009B4A934263D89B4A934246D0994A93422E
:10292C005DD8122B2AD8122B59D801A252F823F0B9
:10293C00B729000891290008A3290008E5290008F7
:10294C00EB290008EB290008EB290008EB2900080B
:10295C00EB290008EB290008EB290008EB290008FB
:10296C00EB290008EB290008EB290008EB290008EB
:10297C00EB29000899290008AD290008824A9342E6
:10298C0013D02CE03B68DB683B6229E03B68DB68DA
:10299C0004333B6224E03B68DB6808333B621FE096
:1029AC003B68DB680C333B621AE03B689B68002B8E
:1029BC0002D104233B6213E03B689B68012B05D1D9
:1029CC0008233B627B68FA691A6109E008233B62C1
:1029DC007B68FA695A6103E000233B6200E000BFA8
:1029EC00BB69FF2B01D87B6801E07B6804337B61FA
:1029FC00BB69FF2B02D87B6A9B0002E07B6A083B19
:102A0C009B003B617B691A680F213B6901FA03F358
:102A1C00DB431A40396A3B6901FA03F31A437B69B9
:102A2C001A603B685B6803F08053002B00F09080C9
:102A3C00564B9B69554A43F001039361534B9B6979
:102A4C0003F00103BB60BB68514A7B6A9B080233ED
:102A5C0052F82330FB607B6A03F003039B000F22C8
:102A6C0002FA03F3DB43FA681340FB607B68494AC4
:102A7C0093420DD07B68484A934207D07B68474A03
:102A8C00934201D1022304E0032302E0012300E07E
:102A9C0000237A6A02F0030292009340FA6813430F
:102AAC00FB603B497B6A9B080233FA6841F82320A0
:102ABC003B685B6803F48013002B06D0384B9A6894
:102ACC003749BB6913438B6006E0354B9A68BB6989
:102ADC00DB43334913408B603B685B6803F40013A2
:102AEC00002B06D02E4BDA682D49BB691343CB6003
:102AFC0006E02B4BDA68BB69DB4329491340CB60FA
:102B0C003B685B6803F40033002B06D0244B5A68F7
:102B1C002349BB6913434B6006E0214B5A68BB69E0
:102B2C00DB431F4913404B603B685B6803F4803305
:102B3C00002B06D01A4B1A681949BB6913430B605A
:102B4C0006E0174B1A68BB69DB43154913400B6051
:102B5C007B6A01337B623B681A687B6A22FA03F357
:102B6C00002B7FF4AFAE00BF00BF2C37BD4680BC3E
:102B7C00704700BF0000321000003110000022101E
:102B8C000000211000001210000011100010024073
:102B9C000000014000080140000C01400010014001
:102BAC000004014080B485B000AF78600B467B8098
:102BBC007B689A687B881340002B02D00123FB733F
:102BCC0001E00023FB73FB7B18461437BD4680BC29
:102BDC00704780B483B000AF78600B467B8013469F
:102BEC007B707B78002B03D07A887B681A6103E0BA
:102BFC007B881A047B681A6100BF0C37BD4680BC09
:102C0C007047000080B586B000AF78607B68002B01
:102C1C0001D101236CE27B681B6803F00103002BDC
:102C2C0000F08780924B5B6803F00C03042B0CD0F4
:102C3C008F4B5B6803F00C03082B12D18C4B5B6839
:102C4C0003F48033B3F5803F0BD1894B1B6803F43D
:102C5C000033002B6CD07B685B68002B68D10123A0
:102C6C0046E27B685B68B3F5803F06D1804B1B68FE
:102C7C007F4A43F4803313602EE07B685B68002B43
:102C8C000CD17B4B1B687A4A23F480331360784B4E
:102C9C001B68774A23F4802313601DE07B685B6814
:102CAC00B3F5A02F0CD1724B1B68714A43F48023EF
:102CBC0013606F4B1B686E4A43F4803313600BE058
:102CCC006B4B1B686A4A23F480331360684B1B6898
:102CDC00674A23F4802313607B685B68002B13D056
:102CEC00FFF7CEFC386108E0FFF7CAFC02463B69EF
:102CFC00D31A642B01D90323FAE15D4B1B6803F44F
:102D0C000033002BF0D014E0FFF7BAFC386108E078
:102D1C00FFF7B6FC02463B69D31A642B01D9032397
:102D2C00E6E1534B1B6803F40033002BF0D100E0B9
:102D3C0000BF7B681B6803F00203002B63D04C4B75
:102D4C005B6803F00C03002B0BD0494B5B6803F062
:102D5C000C03082B1CD1464B5B6803F48033002B0F
:102D6C0016D1434B1B6803F00203002B05D07B6884
:102D7C001B69012B01D00123BAE13D4B1B6823F0E9
:102D8C00F8027B685B69DB00394913430B603AE05E
:102D9C007B681B69002B20D0364B01221A60FFF791
:102DAC006FFC386108E0FFF76BFC02463B69D31AF5
:102DBC00022B01D903239BE12D4B1B6803F002036B
:102DCC00002BF0D02A4B1B6823F0F8027B685B6960
:102DDC00DB00274913430B6015E0264B00221A60D9
:102DEC00FFF74EFC386108E0FFF74AFC02463B69EE
:102DFC00D31A022B01D903237AE11D4B1B6803F074
:102E0C000203002BF0D17B681B6803F00803002B36
:102E1C003AD07B689B69002B19D0174B01221A60A2
:102E2C00FFF72EFC386108E0FFF72AFC02463B69ED
:102E3C00D31A022B01D903235AE10D4B5B6A03F021
:102E4C000203002BF0D0012000F09AFA1CE00A4B90
:102E5C0000221A60FFF714FC38610FE0FFF710FC3A
:102E6C0002463B69D31A022B08D9032340E100BF69
:102E7C000010024000004242800442429E4B5B6ABA
:102E8C0003F00203002BE9D17B681B6803F00403F9
:102E9C00002B00F0A6800023FB75974BDB6903F039
:102EAC008053002B0DD1944BDB69934A43F0805334
:102EBC00D361914BDB6903F08053BB60BB6801238A
:102ECC00FB758E4B1B6803F48073002B18D18B4B56
:102EDC001B688A4A43F480731360FFF7D1FB386197
:102EEC0008E0FFF7CDFB02463B69D31A642B01D9EE
:102EFC000323FDE0814B1B6803F48073002BF0D09F
:102F0C007B68DB68012B06D17B4B1B6A7A4A43F04A
:102F1C00010313622DE07B68DB68002B0CD1764B30
:102F2C001B6A754A23F001031362734B1B6A724AC6
:102F3C0023F0040313621CE07B68DB68052B0CD1C7
:102F4C006D4B1B6A6C4A43F0040313626A4B1B6A99
:102F5C00694A43F0010313620BE0674B1B6A664A34
:102F6C0023F001031362644B1B6A634A23F00403CE
:102F7C0013627B68DB68002B15D0FFF781FB38618F
:102F8C000AE0FFF77DFB02463B69D31A41F2883217
:102F9C00934201D90323ABE0574B1B6A03F00203A6
:102FAC00002BEED014E0FFF76BFB38610AE0FFF763
:102FBC0067FB02463B69D31A41F28832934201D92E
:102FCC00032395E04C4B1B6A03F00203002BEED15C
:102FDC00FB7D012B05D1484BDB69474A23F080531D
:102FEC00D3617B68DB69002B00F08180424B5B680E
:102FFC0003F00C03082B61D07B68DB69022B46D1F4
:10300C003F4B00221A60FFF73BFB386108E0FFF7EB
:10301C0037FB02463B69D31A022B01D9032367E025
:10302C00354B1B6803F00073002BF0D17B681B6AD7
:10303C00B3F5803F08D1304B5B6823F400327B68DA
:10304C009B682D4913434B602B4B5B6823F4741224
:10305C007B68196A7B685B6A0B43274913434B6097
:10306C00274B01221A60FFF70BFB386108E0FFF7D2
:10307C0007FB02463B69D31A022B01D9032337E025
:10308C001D4B1B6803F00073002BF0D02FE01C4B82
:10309C0000221A60FFF7F4FA386108E0FFF7F0FA43
:1030AC0002463B69D31A022B01D9032320E0124BB1
:1030BC001B6803F00073002BF0D118E07B68DB6910
:1030CC00012B01D1012313E00B4B5B68FB60FB6808
:1030DC0003F480327B681B6A9A4206D1FB6803F4C6
:1030EC0070127B685B6A9A4201D0012300E00023D6
:1030FC0018461837BD4680BD0010024000700040D5
:10310C006000424280B584B000AF786039607B6863
:10311C00002B01D10123D0E06A4B1B6803F007039D
:10312C003A689A4210D9674B1B6823F0070265492D
:10313C003B6813430B60634B1B6803F007033A684F
:10314C009A4201D00123B8E07B681B6803F00203AC
:10315C00002B20D07B681B6803F00403002B05D0E8
:10316C00594B5B68584A43F4E06353607B681B68B7
:10317C0003F00803002B05D0534B5B68524A43F411
:10318C0060535360504B5B6823F0F0027B689B6884
:10319C004D4913434B607B681B6803F00103002B04
:1031AC0040D07B685B68012B07D1474B1B6803F44D
:1031BC000033002B15D101237FE07B685B68022B69
:1031CC0007D1414B1B6803F00073002B09D101237D
:1031DC0073E03D4B1B6803F00203002B01D101236C
:1031EC006BE0394B5B6823F003027B685B68364904
:1031FC0013434B60FFF744FAF8600AE0FFF740FA1C
:10320C000246FB68D31A41F28832934201D9032358
:10321C0053E02D4B5B6803F00C027B685B689B00F2
:10322C009A42EBD1274B1B6803F007033A689A428A
:10323C0010D2244B1B6823F0070222493B6813432E
:10324C000B60204B1B6803F007033A689A4201D0CD
:10325C00012332E07B681B6803F00403002B08D0C9
:10326C00194B5B6823F4E0627B68DB6816491343F7
:10327C004B607B681B6803F00803002B09D0124BD2
:10328C005B6823F460527B681B69DB000E491343B7
:10329C004B6000F021F802460B4B5B681B0903F0F6
:1032AC000F030A49CB5C22FA03F3094A1360094B5A
:1032BC001B681846FFF7A2F9002318461037BD46C5
:1032CC0080BD00BF0020024000100240083C0008F6
:1032DC00380000203C00002080B487B000AF0023F1
:1032EC00FB600023BB6000237B6100237B60002319
:1032FC003B611E4B5B68FB60FB6803F00C03042B0B
:10330C0002D0082B03D027E0194B3B6127E0FB6868
:10331C009B0C03F00F03174AD35C7B60FB6803F430
:10332C008033002B10D0114B5B685B0C03F0010356
:10333C00114AD35CBB607B680D4A02FB03F2BB688D
:10334C00B2FBF3F37B6104E07B680C4A02FB03F3F2
:10335C007B617B693B6102E0054B3B6100BF3B69D4
:10336C0018461C37BD4680BC704700BF0010024099
:10337C0000127A00183C0008283C000800093D00A7
:10338C0080B485B000AF78600A4B1B680A4AA2FB78
:10339C0003235B0A7A6802FB03F3FB6000BFFB6844
:1033AC005A1EFA60002BF9D100BF00BF1437BD467E
:1033BC0080BC704738000020D34D621080B582B0BD
:1033CC0000AF78607B68002B01D1012341E07B6862
:1033DC0093F83D30DBB2002B06D17B68002283F8DA
:1033EC003C207868FFF772F87B68022283F83D2056
:1033FC007B681A687B6804331946104600F06EFA35
:10340C007B68012283F846207B68012283F83E20EA
:10341C007B68012283F83F207B68012283F84020DF
:10342C007B68012283F841207B68012283F84220CB
:10343C007B68012283F843207B68012283F84420B7
:10344C007B68012283F845207B68012283F83D20AC
:10345C00002318460837BD4680BD000080B485B0F7
:10346C0000AF78607B6893F83D30DBB2012B01D064
:10347C00012335E07B68022283F83D207B681B68C2
:10348C00DA687B681B6842F00102DA607B681B68B3
:10349C00164A934209D07B681B68B3F1804F04D065
:1034AC007B681B68124A934211D17B681B689B682E
:1034BC0003F00703FB60FB68062B10D07B681B68CE
:1034CC001A687B681B6842F001021A6007E07B688F
:1034DC001B681A687B681B6842F001021A600023A3
:1034EC0018461437BD4680BC704700BF002C014005
:1034FC000004004080B582B000AF78607B681B6828
:10350C001B6903F00203022B22D17B681B68DB686A
:10351C0003F00203022B1BD17B681B686FF00202C5
:10352C001A617B6801221A777B681B689B6903F020
:10353C000303002B03D0786800F0B4F905E0786839
:10354C0000F0A7F9786800F0B6F97B6800221A77CA
:10355C007B681B681B6903F00403042B22D17B6876
:10356C001B68DB6803F00403042B1BD17B681B680E
:10357C006FF004021A617B6802221A777B681B6861
:10358C009B6903F44073002B03D0786800F08AF930
:10359C0005E0786800F07DF9786800F08CF97B68BC
:1035AC0000221A777B681B681B6903F00803082B41
:1035BC0022D17B681B68DB6803F00803082B1BD146
:1035CC007B681B686FF008021A617B6804221A770B
:1035DC007B681B68DB6903F00303002B03D078685E
:1035EC0000F060F905E0786800F053F9786800F0B5
:1035FC0062F97B6800221A777B681B681B6903F0F1
:10360C001003102B22D17B681B68DB6803F01003BE
:10361C00102B1BD17B681B686FF010021A617B6842
:10362C0008221A777B681B68DB6903F44073002B54
:10363C0003D0786800F036F905E0786800F029F9D5
:10364C00786800F038F97B6800221A777B681B6871
:10365C001B6903F00103012B0ED17B681B68DB682F
:10366C0003F00103012B07D17B681B686FF001028B
:10367C001A617868FDF7B2FF7B681B681B6903F061
:10368C008003802B0ED17B681B68DB6803F0800302
:10369C00802B07D17B681B686FF080021A617868F9
:1036AC0000F06BFA7B681B681B6903F04003402B2E
:1036BC000ED17B681B68DB6803F04003402B07D1FD
:1036CC007B681B686FF040021A61786800F0FCF8A8
:1036DC007B681B681B6903F02003202B0ED17B68D1
:1036EC001B68DB6803F02003202B07D17B681B6869
:1036FC006FF020021A61786800F036FA00BF0837C4
:10370C00BD4680BD80B584B000AF786039600023C1
:10371C00FB737B6893F83C30012B01D10223B4E09E
:10372C007B68012283F83C207B68022283F83D20D1
:10373C007B681B689B68BB60BB6823F07703BB602E
:10374C00BB6823F47F43BB607B681B68BA689A60D4
:10375C003B681B68B3F5005F3ED0B3F5005F00F229
:10376C008780B3F5805F00F08680B3F5805F7FD8EB
:10377C00702B1AD0702B7BD8602B50D0602B77D845
:10378C00502B3CD0502B73D8402B58D0402B6FD89B
:10379C00302B64D0302B6BD8202B60D0202B67D8EB
:1037AC00002B5CD0102B5AD062E07B6818683B6809
:1037BC0099683B685A683B68DB6800F05EF97B6887
:1037CC001B689B68BB60BB6843F07703BB607B687E
:1037DC001B68BA689A604FE07B6818683B68996808
:1037EC003B685A683B68DB6800F047F97B681B68EC
:1037FC009A687B681B6842F480429A603CE07B6864
:10380C0018683B6859683B68DB681A4600F0BEF8DC
:10381C007B681B685021184600F015F92CE07B687A
:10382C0018683B6859683B68DB681A4600F0DCF89E
:10383C007B681B686021184600F005F91CE07B686A
:10384C0018683B6859683B68DB681A4600F09EF8BC
:10385C007B681B684021184600F0F5F80CE07B688B
:10386C001A683B681B681946104600F0ECF803E038
:10387C000123FB7300E000BF7B68012283F83D202D
:10388C007B68002283F83C20FB7B18461037BD4632
:10389C0080BD80B483B000AF786000BF0C37BD46EC
:1038AC0080BC704780B483B000AF786000BF0C3729
:1038BC00BD4680BC704780B483B000AF786000BF59
:1038CC000C37BD4680BC704780B483B000AF7860C5
:1038DC0000BF0C37BD4680BC7047000080B485B07B
:1038EC0000AF786039607B681B68FB607B68254A99
:1038FC00934207D07B68B3F1804F03D07B68224A98
:10390C00934208D1FB6823F07003FB603B685B6853
:10391C00FA681343FB607B681A4A934207D07B68B2
:10392C00B3F1804F03D07B68174A934208D1FB68F0
:10393C0023F44073FB603B68DB68FA681343FB605D
:10394C00FB6823F080023B685B691343FB607B6878
:10395C00FA681A603B689A687B68DA623B681A6896
:10396C007B689A627B68074A934203D13B681A6969
:10397C007B681A637B6801225A6100BF1437BD460D
:10398C0080BC7047002C01400004004080B487B01C
:10399C0000AFF860B9607A60FB681B6A7B61FB68FA
:1039AC001B6A23F00102FB681A62FB689B693B618E
:1039BC003B6923F0F0033B617B681B013A691343BD
:1039CC003B617B6923F00A037B617A69BB68134313
:1039DC007B61FB683A699A61FB687A691A6200BF7D
:1039EC001C37BD4680BC704780B487B000AFF86010
:1039FC00B9607A60FB681B6A7B61FB681B6A23F009
:103A0C001002FB681A62FB689B693B613B6923F4FB
:103A1C0070433B617B681B033A6913433B617B69D1
:103A2C0023F0A0037B61BB681B017A6913437B61A4
:103A3C00FB683A699A61FB687A691A6200BF1C37A5
:103A4C00BD4680BC704780B485B000AF78603960EB
:103A5C007B689B68FB60FB6823F07003FB603A6833
:103A6C00FB68134343F00703FB607B68FA689A60BA
:103A7C0000BF1437BD4680BC704780B487B000AF20
:103A8C00F860B9607A603B60FB689B687B617B691E
:103A9C0023F47F437B613B681A027B681A43BB6843
:103AAC0013437A6913437B61FB687A699A6000BFA0
:103ABC001C37BD4680BC704780B485B000AF7860C1
:103ACC0039607B6893F83C30012B01D1022341E033
:103ADC007B68012283F83C207B68022283F83D201E
:103AEC007B681B685B68FB607B681B689B68BB60C2
:103AFC00FB6823F07003FB603B681B68FA68134398
:103B0C00FB607B681B68FA685A607B681B68144A08
:103B1C00934209D07B681B68B3F1804F04D07B685B
:103B2C001B68104A93420CD1BB6823F08003BB6026
:103B3C003B685B68BA681343BB607B681B68BA68F8
:103B4C009A607B68012283F83D207B68002283F811
:103B5C003C20002318461437BD4680BC704700BF7C
:103B6C00002C01400004004080B483B000AF7860AA
:103B7C0000BF0C37BD4680BC704780B483B000AF2B
:103B8C00786000BF0C37BD4680BC704770B500260E
:103B9C000C4D0D4C641BA410A64209D100F022F868
:103BAC0000260A4D0A4C641BA410A64205D170BD18
:103BBC0055F8043B98470136EEE755F8043B984717
:103BCC000136F2E72C3C00082C3C00082C3C000889
:103BDC00303C000803460244934200D1704703F87E
:103BEC00011BF9E7F8B500BFF8BC08BC9E4670474E
:0C3BFC00F8B500BFF8BC08BC9E4670473E
:103C08000000000000000000010203040607080984
:103C180002030405060708090A0B0C0D0E0F101005
:043C28000102000095
:043C2C00310100085A
:043C30000D0100087A
:103C3400010000000100000001000000010000007C
:103C4400010000000100000001000000010000006C
:103C5400C80000000000A0400000404000000040F8
:103C640001000000010000000024F4001000000026
:043C7400010000004B
:040000050800259139
:00000001FF
